{
	"learning.sol": {
		"LearnerContract": {
			"abi": [
				{
					"inputs": [],
					"stateMutability": "payable",
					"type": "constructor"
				},
				{
					"inputs": [
						{
							"internalType": "uint256",
							"name": "balance",
							"type": "uint256"
						},
						{
							"internalType": "uint256",
							"name": "withdrawAmount",
							"type": "uint256"
						}
					],
					"name": "InsufficientBalance",
					"type": "error"
				},
				{
					"anonymous": false,
					"inputs": [
						{
							"indexed": true,
							"internalType": "address",
							"name": "sender",
							"type": "address"
						},
						{
							"indexed": false,
							"internalType": "string",
							"name": "message",
							"type": "string"
						}
					],
					"name": "Log",
					"type": "event"
				},
				{
					"stateMutability": "payable",
					"type": "fallback"
				},
				{
					"inputs": [],
					"name": "MY_ADDRESS",
					"outputs": [
						{
							"internalType": "address payable",
							"name": "",
							"type": "address"
						}
					],
					"stateMutability": "view",
					"type": "function"
				},
				{
					"inputs": [],
					"name": "NOT_MY_ADDRESS",
					"outputs": [
						{
							"internalType": "address",
							"name": "",
							"type": "address"
						}
					],
					"stateMutability": "view",
					"type": "function"
				},
				{
					"inputs": [],
					"name": "aBool",
					"outputs": [
						{
							"internalType": "bool",
							"name": "",
							"type": "bool"
						}
					],
					"stateMutability": "view",
					"type": "function"
				},
				{
					"inputs": [],
					"name": "count",
					"outputs": [
						{
							"internalType": "uint256",
							"name": "",
							"type": "uint256"
						}
					],
					"stateMutability": "view",
					"type": "function"
				},
				{
					"inputs": [
						{
							"internalType": "string",
							"name": "tix",
							"type": "string"
						},
						{
							"internalType": "uint256",
							"name": "price",
							"type": "uint256"
						}
					],
					"name": "createOrder",
					"outputs": [],
					"stateMutability": "pure",
					"type": "function"
				},
				{
					"inputs": [],
					"name": "dec",
					"outputs": [],
					"stateMutability": "nonpayable",
					"type": "function"
				},
				{
					"inputs": [],
					"name": "double",
					"outputs": [],
					"stateMutability": "nonpayable",
					"type": "function"
				},
				{
					"inputs": [],
					"name": "get",
					"outputs": [
						{
							"internalType": "uint256",
							"name": "",
							"type": "uint256"
						}
					],
					"stateMutability": "view",
					"type": "function"
				},
				{
					"inputs": [],
					"name": "getABool",
					"outputs": [
						{
							"internalType": "bool",
							"name": "",
							"type": "bool"
						}
					],
					"stateMutability": "view",
					"type": "function"
				},
				{
					"inputs": [
						{
							"internalType": "address",
							"name": "addr",
							"type": "address"
						}
					],
					"name": "getBal",
					"outputs": [
						{
							"internalType": "uint256",
							"name": "",
							"type": "uint256"
						}
					],
					"stateMutability": "view",
					"type": "function"
				},
				{
					"inputs": [],
					"name": "getBalance",
					"outputs": [
						{
							"internalType": "uint256",
							"name": "",
							"type": "uint256"
						}
					],
					"stateMutability": "view",
					"type": "function"
				},
				{
					"inputs": [],
					"name": "getNumbers",
					"outputs": [
						{
							"internalType": "uint256[4]",
							"name": "",
							"type": "uint256[4]"
						}
					],
					"stateMutability": "view",
					"type": "function"
				},
				{
					"inputs": [],
					"name": "getOrder",
					"outputs": [
						{
							"internalType": "enum LearnerContract.Order",
							"name": "",
							"type": "uint8"
						}
					],
					"stateMutability": "view",
					"type": "function"
				},
				{
					"inputs": [],
					"name": "getStamp",
					"outputs": [
						{
							"internalType": "uint256",
							"name": "",
							"type": "uint256"
						}
					],
					"stateMutability": "view",
					"type": "function"
				},
				{
					"inputs": [],
					"name": "inc",
					"outputs": [],
					"stateMutability": "nonpayable",
					"type": "function"
				},
				{
					"inputs": [
						{
							"internalType": "address",
							"name": "addr",
							"type": "address"
						}
					],
					"name": "incBal",
					"outputs": [],
					"stateMutability": "nonpayable",
					"type": "function"
				},
				{
					"inputs": [
						{
							"internalType": "address",
							"name": "",
							"type": "address"
						}
					],
					"name": "ledger",
					"outputs": [
						{
							"internalType": "uint256",
							"name": "",
							"type": "uint256"
						}
					],
					"stateMutability": "view",
					"type": "function"
				},
				{
					"inputs": [],
					"name": "loopUp",
					"outputs": [],
					"stateMutability": "nonpayable",
					"type": "function"
				},
				{
					"inputs": [],
					"name": "makeFalse",
					"outputs": [],
					"stateMutability": "nonpayable",
					"type": "function"
				},
				{
					"inputs": [],
					"name": "makeTrue",
					"outputs": [],
					"stateMutability": "nonpayable",
					"type": "function"
				},
				{
					"inputs": [],
					"name": "maybeRandom",
					"outputs": [
						{
							"internalType": "uint256",
							"name": "",
							"type": "uint256"
						}
					],
					"stateMutability": "view",
					"type": "function"
				},
				{
					"inputs": [],
					"name": "order",
					"outputs": [
						{
							"internalType": "enum LearnerContract.Order",
							"name": "",
							"type": "uint8"
						}
					],
					"stateMutability": "view",
					"type": "function"
				},
				{
					"inputs": [
						{
							"internalType": "enum LearnerContract.Order",
							"name": "orderType",
							"type": "uint8"
						}
					],
					"name": "setOrder",
					"outputs": [],
					"stateMutability": "nonpayable",
					"type": "function"
				},
				{
					"inputs": [],
					"name": "setToPending",
					"outputs": [],
					"stateMutability": "nonpayable",
					"type": "function"
				},
				{
					"inputs": [
						{
							"internalType": "uint256",
							"name": "_x",
							"type": "uint256"
						}
					],
					"name": "ternary",
					"outputs": [
						{
							"internalType": "uint256",
							"name": "",
							"type": "uint256"
						}
					],
					"stateMutability": "pure",
					"type": "function"
				},
				{
					"inputs": [],
					"name": "test",
					"outputs": [],
					"stateMutability": "nonpayable",
					"type": "function"
				},
				{
					"inputs": [
						{
							"internalType": "uint256",
							"name": "_in",
							"type": "uint256"
						}
					],
					"name": "testRequire",
					"outputs": [],
					"stateMutability": "nonpayable",
					"type": "function"
				},
				{
					"inputs": [
						{
							"internalType": "uint256",
							"name": "updoot",
							"type": "uint256"
						}
					],
					"name": "transactMe",
					"outputs": [
						{
							"internalType": "uint256",
							"name": "",
							"type": "uint256"
						}
					],
					"stateMutability": "nonpayable",
					"type": "function"
				},
				{
					"inputs": [],
					"name": "whois",
					"outputs": [
						{
							"internalType": "address",
							"name": "",
							"type": "address"
						}
					],
					"stateMutability": "view",
					"type": "function"
				},
				{
					"inputs": [
						{
							"internalType": "uint256",
							"name": "amount",
							"type": "uint256"
						}
					],
					"name": "withdraw",
					"outputs": [
						{
							"internalType": "uint256",
							"name": "",
							"type": "uint256"
						}
					],
					"stateMutability": "view",
					"type": "function"
				},
				{
					"stateMutability": "payable",
					"type": "receive"
				}
			],
			"devdoc": {
				"kind": "dev",
				"methods": {},
				"version": 1
			},
			"evm": {
				"assembly": "    /* \"learning.sol\":60:4819  contract LearnerContract {\r... */\n  mstore(0x40, 0xa0)\n    /* \"learning.sol\":225:267  0x777788889999AaAAbBbbCcccddDdeeeEfFFfCcCc */\n  0x777788889999aaaabbbbccccddddeeeeffffcccc\n    /* \"learning.sol\":183:267  address public immutable NOT_MY_ADDRESS = 0x777788889999AaAAbBbbCcccddDdeeeEfFFfCcCc */\n  0xffffffffffffffffffffffffffffffffffffffff\n  and\n  0x80\n  swap1\n  0xffffffffffffffffffffffffffffffffffffffff\n  and\n  0x60\n  shl\n  dup2\n  mstore\n  pop\n    /* \"learning.sol\":743:753  msg.sender */\n  caller\n    /* \"learning.sol\":722:732  MY_ADDRESS */\n  0x01\n  dup1\n    /* \"learning.sol\":722:754  MY_ADDRESS = payable(msg.sender) */\n  0x0100\n  exp\n  dup2\n  sload\n  dup2\n  0xffffffffffffffffffffffffffffffffffffffff\n  mul\n  not\n  and\n  swap1\n  dup4\n  0xffffffffffffffffffffffffffffffffffffffff\n  and\n  mul\n  or\n  swap1\n  sstore\n  pop\n    /* \"learning.sol\":60:4819  contract LearnerContract {\r... */\n  shr(0x60, mload(0x80))\n  codecopy(0x00, dataOffset(sub_0), dataSize(sub_0))\n  0x00\n  assignImmutable(\"0x1a192fabce13988b84994d4296e6cdc418d55e2f1d7f942188d4040b94fc57ac\")\n  return(0x00, dataSize(sub_0))\nstop\n\nsub_0: assembly {\n        /* \"learning.sol\":60:4819  contract LearnerContract {\r... */\n      mstore(0x40, 0x80)\n      jumpi(tag_1, lt(calldatasize, 0x04))\n      shr(0xe0, calldataload(0x00))\n      dup1\n      0x6d4ce63c\n      gt\n      tag_33\n      jumpi\n      dup1\n      0xbf15071d\n      gt\n      tag_34\n      jumpi\n      dup1\n      0xf8a8fd6d\n      gt\n      tag_35\n      jumpi\n      dup1\n      0xf8a8fd6d\n      eq\n      tag_29\n      jumpi\n      dup1\n      0xfbfa941f\n      eq\n      tag_30\n      jumpi\n      dup1\n      0xfc38511a\n      eq\n      tag_31\n      jumpi\n      dup1\n      0xfc6167cc\n      eq\n      tag_32\n      jumpi\n      jump(tag_2)\n    tag_35:\n      dup1\n      0xbf15071d\n      eq\n      tag_25\n      jumpi\n      dup1\n      0xd36dedd2\n      eq\n      tag_26\n      jumpi\n      dup1\n      0xe7004c89\n      eq\n      tag_27\n      jumpi\n      dup1\n      0xf4e78580\n      eq\n      tag_28\n      jumpi\n      jump(tag_2)\n    tag_34:\n      dup1\n      0x97de706f\n      gt\n      tag_36\n      jumpi\n      dup1\n      0x97de706f\n      eq\n      tag_21\n      jumpi\n      dup1\n      0x9ddbebd8\n      eq\n      tag_22\n      jumpi\n      dup1\n      0xb3bcfa82\n      eq\n      tag_23\n      jumpi\n      dup1\n      0xb8bd717f\n      eq\n      tag_24\n      jumpi\n      jump(tag_2)\n    tag_36:\n      dup1\n      0x6d4ce63c\n      eq\n      tag_18\n      jumpi\n      dup1\n      0x89f915f6\n      eq\n      tag_19\n      jumpi\n      dup1\n      0x8fdb7189\n      eq\n      tag_20\n      jumpi\n      jump(tag_2)\n    tag_33:\n      dup1\n      0x340488c6\n      gt\n      tag_37\n      jumpi\n      dup1\n      0x3d1157fb\n      gt\n      tag_38\n      jumpi\n      dup1\n      0x3d1157fb\n      eq\n      tag_14\n      jumpi\n      dup1\n      0x4984e402\n      eq\n      tag_15\n      jumpi\n      dup1\n      0x4c35a7c9\n      eq\n      tag_16\n      jumpi\n      dup1\n      0x55278c5b\n      eq\n      tag_17\n      jumpi\n      jump(tag_2)\n    tag_38:\n      dup1\n      0x340488c6\n      eq\n      tag_10\n      jumpi\n      dup1\n      0x350ca843\n      eq\n      tag_11\n      jumpi\n      dup1\n      0x371303c0\n      eq\n      tag_12\n      jumpi\n      dup1\n      0x3a756cec\n      eq\n      tag_13\n      jumpi\n      jump(tag_2)\n    tag_37:\n      dup1\n      0x2c9fcc1d\n      gt\n      tag_39\n      jumpi\n      dup1\n      0x2c9fcc1d\n      eq\n      tag_6\n      jumpi\n      dup1\n      0x2e1a7d4d\n      eq\n      tag_7\n      jumpi\n      dup1\n      0x2fa78085\n      eq\n      tag_8\n      jumpi\n      dup1\n      0x3052e962\n      eq\n      tag_9\n      jumpi\n      jump(tag_2)\n    tag_39:\n      dup1\n      0x06661abd\n      eq\n      tag_3\n      jumpi\n      dup1\n      0x12065fe0\n      eq\n      tag_4\n      jumpi\n      dup1\n      0x15169e9a\n      eq\n      tag_5\n      jumpi\n      jump(tag_2)\n    tag_1:\n      jumpi(tag_2, calldatasize)\n      stop\n    tag_2:\n      stop\n        /* \"learning.sol\":94:111  uint public count */\n    tag_3:\n      callvalue\n      dup1\n      iszero\n      tag_44\n      jumpi\n      0x00\n      dup1\n      revert\n    tag_44:\n      pop\n      tag_45\n      tag_46\n      jump\t// in\n    tag_45:\n      mload(0x40)\n      tag_47\n      swap2\n      swap1\n      tag_48\n      jump\t// in\n    tag_47:\n      mload(0x40)\n      dup1\n      swap2\n      sub\n      swap1\n      return\n        /* \"learning.sol\":4720:4816  function getBalance() public view returns (uint) {\r... */\n    tag_4:\n      callvalue\n      dup1\n      iszero\n      tag_49\n      jumpi\n      0x00\n      dup1\n      revert\n    tag_49:\n      pop\n      tag_50\n      tag_51\n      jump\t// in\n    tag_50:\n      mload(0x40)\n      tag_52\n      swap2\n      swap1\n      tag_48\n      jump\t// in\n    tag_52:\n      mload(0x40)\n      dup1\n      swap2\n      sub\n      swap1\n      return\n        /* \"learning.sol\":3298:3495  function loopUp() public { // better to use this cuz gas, not while loops cuz that could run out of gas \r... */\n    tag_5:\n      callvalue\n      dup1\n      iszero\n      tag_53\n      jumpi\n      0x00\n      dup1\n      revert\n    tag_53:\n      pop\n      tag_54\n      tag_55\n      jump\t// in\n    tag_54:\n      stop\n        /* \"learning.sol\":3503:3633  function maybeRandom() public view returns (uint)\r... */\n    tag_6:\n      callvalue\n      dup1\n      iszero\n      tag_56\n      jumpi\n      0x00\n      dup1\n      revert\n    tag_56:\n      pop\n      tag_57\n      tag_58\n      jump\t// in\n    tag_57:\n      mload(0x40)\n      tag_59\n      swap2\n      swap1\n      tag_48\n      jump\t// in\n    tag_59:\n      mload(0x40)\n      dup1\n      swap2\n      sub\n      swap1\n      return\n        /* \"learning.sol\":4082:4387  function withdraw(uint amount) public view returns (uint)\r... */\n    tag_7:\n      callvalue\n      dup1\n      iszero\n      tag_60\n      jumpi\n      0x00\n      dup1\n      revert\n    tag_60:\n      pop\n      tag_61\n      0x04\n      dup1\n      calldatasize\n      sub\n      dup2\n      add\n      swap1\n      tag_62\n      swap2\n      swap1\n      tag_63\n      jump\t// in\n    tag_62:\n      tag_64\n      jump\t// in\n    tag_61:\n      mload(0x40)\n      tag_65\n      swap2\n      swap1\n      tag_48\n      jump\t// in\n    tag_65:\n      mload(0x40)\n      dup1\n      swap2\n      sub\n      swap1\n      return\n        /* \"learning.sol\":1728:1828  function getBal(address addr) public view returns (uint)\r... */\n    tag_8:\n      callvalue\n      dup1\n      iszero\n      tag_66\n      jumpi\n      0x00\n      dup1\n      revert\n    tag_66:\n      pop\n      tag_67\n      0x04\n      dup1\n      calldatasize\n      sub\n      dup2\n      add\n      swap1\n      tag_68\n      swap2\n      swap1\n      tag_69\n      jump\t// in\n    tag_68:\n      tag_70\n      jump\t// in\n    tag_67:\n      mload(0x40)\n      tag_71\n      swap2\n      swap1\n      tag_48\n      jump\t// in\n    tag_71:\n      mload(0x40)\n      dup1\n      swap2\n      sub\n      swap1\n      return\n        /* \"learning.sol\":1078:1149  function setToPending() public {\r... */\n    tag_9:\n      callvalue\n      dup1\n      iszero\n      tag_72\n      jumpi\n      0x00\n      dup1\n      revert\n    tag_72:\n      pop\n      tag_73\n      tag_74\n      jump\t// in\n    tag_73:\n      stop\n        /* \"learning.sol\":2317:2376  function makeTrue() public {\r... */\n    tag_10:\n      callvalue\n      dup1\n      iszero\n      tag_75\n      jumpi\n      0x00\n      dup1\n      revert\n    tag_75:\n      pop\n      tag_76\n      tag_77\n      jump\t// in\n    tag_76:\n      stop\n        /* \"learning.sol\":118:135  bool public aBool */\n    tag_11:\n      callvalue\n      dup1\n      iszero\n      tag_78\n      jumpi\n      0x00\n      dup1\n      revert\n    tag_78:\n      pop\n      tag_79\n      tag_80\n      jump\t// in\n    tag_79:\n      mload(0x40)\n      tag_81\n      swap2\n      swap1\n      tag_82\n      jump\t// in\n    tag_81:\n      mload(0x40)\n      dup1\n      swap2\n      sub\n      swap1\n      return\n        /* \"learning.sol\":2000:2051  function inc() public {\r... */\n    tag_12:\n      callvalue\n      dup1\n      iszero\n      tag_83\n      jumpi\n      0x00\n      dup1\n      revert\n    tag_83:\n      pop\n      tag_84\n      tag_85\n      jump\t// in\n    tag_84:\n      stop\n        /* \"learning.sol\":143:176  address payable public MY_ADDRESS */\n    tag_13:\n      callvalue\n      dup1\n      iszero\n      tag_86\n      jumpi\n      0x00\n      dup1\n      revert\n    tag_86:\n      pop\n      tag_87\n      tag_88\n      jump\t// in\n    tag_87:\n      mload(0x40)\n      tag_89\n      swap2\n      swap1\n      tag_90\n      jump\t// in\n    tag_89:\n      mload(0x40)\n      dup1\n      swap2\n      sub\n      swap1\n      return\n        /* \"learning.sol\":1641:1720  function incBal(address addr) public\r... */\n    tag_14:\n      callvalue\n      dup1\n      iszero\n      tag_91\n      jumpi\n      0x00\n      dup1\n      revert\n    tag_91:\n      pop\n      tag_92\n      0x04\n      dup1\n      calldatasize\n      sub\n      dup2\n      add\n      swap1\n      tag_93\n      swap2\n      swap1\n      tag_69\n      jump\t// in\n    tag_93:\n      tag_94\n      jump\t// in\n    tag_92:\n      stop\n        /* \"learning.sol\":183:267  address public immutable NOT_MY_ADDRESS = 0x777788889999AaAAbBbbCcccddDdeeeEfFFfCcCc */\n    tag_15:\n      callvalue\n      dup1\n      iszero\n      tag_95\n      jumpi\n      0x00\n      dup1\n      revert\n    tag_95:\n      pop\n      tag_96\n      tag_97\n      jump\t// in\n    tag_96:\n      mload(0x40)\n      tag_98\n      swap2\n      swap1\n      tag_99\n      jump\t// in\n    tag_98:\n      mload(0x40)\n      dup1\n      swap2\n      sub\n      swap1\n      return\n        /* \"learning.sol\":2384:2445  function makeFalse() public {\r... */\n    tag_16:\n      callvalue\n      dup1\n      iszero\n      tag_100\n      jumpi\n      0x00\n      dup1\n      revert\n    tag_100:\n      pop\n      tag_101\n      tag_102\n      jump\t// in\n    tag_101:\n      stop\n        /* \"learning.sol\":2990:3290  function ternary(uint _x) public pure returns (uint) {\r... */\n    tag_17:\n      callvalue\n      dup1\n      iszero\n      tag_103\n      jumpi\n      0x00\n      dup1\n      revert\n    tag_103:\n      pop\n      tag_104\n      0x04\n      dup1\n      calldatasize\n      sub\n      dup2\n      add\n      swap1\n      tag_105\n      swap2\n      swap1\n      tag_63\n      jump\t// in\n    tag_105:\n      tag_106\n      jump\t// in\n    tag_104:\n      mload(0x40)\n      tag_107\n      swap2\n      swap1\n      tag_48\n      jump\t// in\n    tag_107:\n      mload(0x40)\n      dup1\n      swap2\n      sub\n      swap1\n      return\n        /* \"learning.sol\":1878:1951  function get() public view returns (uint) {\r... */\n    tag_18:\n      callvalue\n      dup1\n      iszero\n      tag_108\n      jumpi\n      0x00\n      dup1\n      revert\n    tag_108:\n      pop\n      tag_109\n      tag_110\n      jump\t// in\n    tag_109:\n      mload(0x40)\n      tag_111\n      swap2\n      swap1\n      tag_48\n      jump\t// in\n    tag_111:\n      mload(0x40)\n      dup1\n      swap2\n      sub\n      swap1\n      return\n        /* \"learning.sol\":3641:3865  function getNumbers() public view returns (uint[4] memory)\r... */\n    tag_19:\n      callvalue\n      dup1\n      iszero\n      tag_112\n      jumpi\n      0x00\n      dup1\n      revert\n    tag_112:\n      pop\n      tag_113\n      tag_114\n      jump\t// in\n    tag_113:\n      mload(0x40)\n      tag_115\n      swap2\n      swap1\n      tag_116\n      jump\t// in\n    tag_115:\n      mload(0x40)\n      dup1\n      swap2\n      sub\n      swap1\n      return\n        /* \"learning.sol\":2208:2309  function double() public {\r... */\n    tag_20:\n      callvalue\n      dup1\n      iszero\n      tag_117\n      jumpi\n      0x00\n      dup1\n      revert\n    tag_117:\n      pop\n      tag_118\n      tag_119\n      jump\t// in\n    tag_118:\n      stop\n        /* \"learning.sol\":1258:1434  function createOrder(string calldata tix, uint price) public pure\r... */\n    tag_21:\n      callvalue\n      dup1\n      iszero\n      tag_120\n      jumpi\n      0x00\n      dup1\n      revert\n    tag_120:\n      pop\n      tag_121\n      0x04\n      dup1\n      calldatasize\n      sub\n      dup2\n      add\n      swap1\n      tag_122\n      swap2\n      swap1\n      tag_123\n      jump\t// in\n    tag_122:\n      tag_124\n      jump\t// in\n    tag_121:\n      stop\n        /* \"learning.sol\":992:1070  function setOrder(Order orderType) public {\r... */\n    tag_22:\n      callvalue\n      dup1\n      iszero\n      tag_125\n      jumpi\n      0x00\n      dup1\n      revert\n    tag_125:\n      pop\n      tag_126\n      0x04\n      dup1\n      calldatasize\n      sub\n      dup2\n      add\n      swap1\n      tag_127\n      swap2\n      swap1\n      tag_128\n      jump\t// in\n    tag_127:\n      tag_129\n      jump\t// in\n    tag_126:\n      stop\n        /* \"learning.sol\":2100:2200  function dec() public {\r... */\n    tag_23:\n      callvalue\n      dup1\n      iszero\n      tag_130\n      jumpi\n      0x00\n      dup1\n      revert\n    tag_130:\n      pop\n      tag_131\n      tag_132\n      jump\t// in\n    tag_131:\n      stop\n        /* \"learning.sol\":3873:4004  function testRequire(uint _in) public\r... */\n    tag_24:\n      callvalue\n      dup1\n      iszero\n      tag_133\n      jumpi\n      0x00\n      dup1\n      revert\n    tag_133:\n      pop\n      tag_134\n      0x04\n      dup1\n      calldatasize\n      sub\n      dup2\n      add\n      swap1\n      tag_135\n      swap2\n      swap1\n      tag_63\n      jump\t// in\n    tag_135:\n      tag_136\n      jump\t// in\n    tag_134:\n      stop\n        /* \"learning.sol\":872:890  Order public order */\n    tag_25:\n      callvalue\n      dup1\n      iszero\n      tag_137\n      jumpi\n      0x00\n      dup1\n      revert\n    tag_137:\n      pop\n      tag_138\n      tag_139\n      jump\t// in\n    tag_138:\n      mload(0x40)\n      tag_140\n      swap2\n      swap1\n      tag_141\n      jump\t// in\n    tag_140:\n      mload(0x40)\n      dup1\n      swap2\n      sub\n      swap1\n      return\n        /* \"learning.sol\":900:984  function getOrder() public view returns(Order)\r... */\n    tag_26:\n      callvalue\n      dup1\n      iszero\n      tag_142\n      jumpi\n      0x00\n      dup1\n      revert\n    tag_142:\n      pop\n      tag_143\n      tag_144\n      jump\t// in\n    tag_143:\n      mload(0x40)\n      tag_145\n      swap2\n      swap1\n      tag_141\n      jump\t// in\n    tag_145:\n      mload(0x40)\n      dup1\n      swap2\n      sub\n      swap1\n      return\n        /* \"learning.sol\":2646:2735  function whois() public view returns (address)\r... */\n    tag_27:\n      callvalue\n      dup1\n      iszero\n      tag_146\n      jumpi\n      0x00\n      dup1\n      revert\n    tag_146:\n      pop\n      tag_147\n      tag_148\n      jump\t// in\n    tag_147:\n      mload(0x40)\n      tag_149\n      swap2\n      swap1\n      tag_99\n      jump\t// in\n    tag_149:\n      mload(0x40)\n      dup1\n      swap2\n      sub\n      swap1\n      return\n        /* \"learning.sol\":2453:2537  function getABool() public view returns (bool)\r... */\n    tag_28:\n      callvalue\n      dup1\n      iszero\n      tag_150\n      jumpi\n      0x00\n      dup1\n      revert\n    tag_150:\n      pop\n      tag_151\n      tag_152\n      jump\t// in\n    tag_151:\n      mload(0x40)\n      tag_153\n      swap2\n      swap1\n      tag_82\n      jump\t// in\n    tag_153:\n      mload(0x40)\n      dup1\n      swap2\n      sub\n      swap1\n      return\n        /* \"learning.sol\":4451:4574  function test() public {\r... */\n    tag_29:\n      callvalue\n      dup1\n      iszero\n      tag_154\n      jumpi\n      0x00\n      dup1\n      revert\n    tag_154:\n      pop\n      tag_155\n      tag_156\n      jump\t// in\n    tag_155:\n      stop\n        /* \"learning.sol\":1442:1480  mapping(address => uint) public ledger */\n    tag_30:\n      callvalue\n      dup1\n      iszero\n      tag_157\n      jumpi\n      0x00\n      dup1\n      revert\n    tag_157:\n      pop\n      tag_158\n      0x04\n      dup1\n      calldatasize\n      sub\n      dup2\n      add\n      swap1\n      tag_159\n      swap2\n      swap1\n      tag_69\n      jump\t// in\n    tag_159:\n      tag_160\n      jump\t// in\n    tag_158:\n      mload(0x40)\n      tag_161\n      swap2\n      swap1\n      tag_48\n      jump\t// in\n    tag_161:\n      mload(0x40)\n      dup1\n      swap2\n      sub\n      swap1\n      return\n        /* \"learning.sol\":2743:2978  function transactMe(uint updoot) public returns (uint) // what is view and why can't it be used if the state is being messed with? (view ensures the state is not modified)\r... */\n    tag_31:\n      callvalue\n      dup1\n      iszero\n      tag_162\n      jumpi\n      0x00\n      dup1\n      revert\n    tag_162:\n      pop\n      tag_163\n      0x04\n      dup1\n      calldatasize\n      sub\n      dup2\n      add\n      swap1\n      tag_164\n      swap2\n      swap1\n      tag_63\n      jump\t// in\n    tag_164:\n      tag_165\n      jump\t// in\n    tag_163:\n      mload(0x40)\n      tag_166\n      swap2\n      swap1\n      tag_48\n      jump\t// in\n    tag_166:\n      mload(0x40)\n      dup1\n      swap2\n      sub\n      swap1\n      return\n        /* \"learning.sol\":2545:2638  function getStamp() public view returns (uint)\r... */\n    tag_32:\n      callvalue\n      dup1\n      iszero\n      tag_167\n      jumpi\n      0x00\n      dup1\n      revert\n    tag_167:\n      pop\n      tag_168\n      tag_169\n      jump\t// in\n    tag_168:\n      mload(0x40)\n      tag_170\n      swap2\n      swap1\n      tag_48\n      jump\t// in\n    tag_170:\n      mload(0x40)\n      dup1\n      swap2\n      sub\n      swap1\n      return\n        /* \"learning.sol\":94:111  uint public count */\n    tag_46:\n      sload(0x00)\n      dup2\n      jump\t// out\n        /* \"learning.sol\":4720:4816  function getBalance() public view returns (uint) {\r... */\n    tag_51:\n        /* \"learning.sol\":4763:4767  uint */\n      0x00\n        /* \"learning.sol\":4787:4808  address(this).balance */\n      selfbalance\n        /* \"learning.sol\":4780:4808  return address(this).balance */\n      swap1\n      pop\n        /* \"learning.sol\":4720:4816  function getBalance() public view returns (uint) {\r... */\n      swap1\n      jump\t// out\n        /* \"learning.sol\":3298:3495  function loopUp() public { // better to use this cuz gas, not while loops cuz that could run out of gas \r... */\n    tag_55:\n        /* \"learning.sol\":3416:3422  uint i */\n      0x00\n        /* \"learning.sol\":3412:3488  for(uint i = 0; i < 16; i++)\r... */\n    tag_173:\n        /* \"learning.sol\":3432:3434  16 */\n      0x10\n        /* \"learning.sol\":3428:3429  i */\n      dup2\n        /* \"learning.sol\":3428:3434  i < 16 */\n      lt\n        /* \"learning.sol\":3412:3488  for(uint i = 0; i < 16; i++)\r... */\n      iszero\n      tag_174\n      jumpi\n        /* \"learning.sol\":3474:3475  1 */\n      0x01\n        /* \"learning.sol\":3465:3470  count */\n      0x00\n      dup1\n        /* \"learning.sol\":3465:3475  count += 1 */\n      dup3\n      dup3\n      sload\n      tag_176\n      swap2\n      swap1\n      tag_177\n      jump\t// in\n    tag_176:\n      swap3\n      pop\n      pop\n      dup2\n      swap1\n      sstore\n      pop\n        /* \"learning.sol\":3436:3439  i++ */\n      dup1\n      dup1\n      tag_178\n      swap1\n      tag_179\n      jump\t// in\n    tag_178:\n      swap2\n      pop\n      pop\n        /* \"learning.sol\":3412:3488  for(uint i = 0; i < 16; i++)\r... */\n      jump(tag_173)\n    tag_174:\n      pop\n        /* \"learning.sol\":3298:3495  function loopUp() public { // better to use this cuz gas, not while loops cuz that could run out of gas \r... */\n      jump\t// out\n        /* \"learning.sol\":3503:3633  function maybeRandom() public view returns (uint)\r... */\n    tag_58:\n        /* \"learning.sol\":3547:3551  uint */\n      0x00\n        /* \"learning.sol\":3569:3578  uint time */\n      dup1\n        /* \"learning.sol\":3581:3596  block.timestamp */\n      timestamp\n        /* \"learning.sol\":3569:3596  uint time = block.timestamp */\n      swap1\n      pop\n        /* \"learning.sol\":3622:3624  10 */\n      0x0a\n        /* \"learning.sol\":3615:3619  time */\n      dup2\n        /* \"learning.sol\":3615:3624  time % 10 */\n      tag_181\n      swap2\n      swap1\n      tag_182\n      jump\t// in\n    tag_181:\n        /* \"learning.sol\":3608:3624  return time % 10 */\n      swap2\n      pop\n      pop\n        /* \"learning.sol\":3503:3633  function maybeRandom() public view returns (uint)\r... */\n      swap1\n      jump\t// out\n        /* \"learning.sol\":4082:4387  function withdraw(uint amount) public view returns (uint)\r... */\n    tag_64:\n        /* \"learning.sol\":4134:4138  uint */\n      0x00\n        /* \"learning.sol\":4156:4164  uint bal */\n      dup1\n        /* \"learning.sol\":4167:4188  address(this).balance */\n      selfbalance\n        /* \"learning.sol\":4156:4188  uint bal = address(this).balance */\n      swap1\n      pop\n        /* \"learning.sol\":4209:4215  amount */\n      dup3\n        /* \"learning.sol\":4203:4206  bal */\n      dup2\n        /* \"learning.sol\":4203:4215  bal < amount */\n      lt\n        /* \"learning.sol\":4200:4380  if(bal < amount)\r... */\n      iszero\n      tag_184\n      jumpi\n        /* \"learning.sol\":4278:4281  bal */\n      dup1\n        /* \"learning.sol\":4299:4305  amount */\n      dup4\n        /* \"learning.sol\":4248:4307  InsufficientBalance({balance: bal, withdrawAmount: amount}) */\n      mload(0x40)\n      0xcf47918100000000000000000000000000000000000000000000000000000000\n      dup2\n      mstore\n      0x04\n      add\n      tag_185\n      swap3\n      swap2\n      swap1\n      tag_186\n      jump\t// in\n    tag_185:\n      mload(0x40)\n      dup1\n      swap2\n      sub\n      swap1\n      revert\n        /* \"learning.sol\":4200:4380  if(bal < amount)\r... */\n    tag_184:\n        /* \"learning.sol\":4366:4367  1 */\n      0x01\n        /* \"learning.sol\":4359:4367  return 1 */\n      swap2\n      pop\n      pop\n        /* \"learning.sol\":4082:4387  function withdraw(uint amount) public view returns (uint)\r... */\n      swap2\n      swap1\n      pop\n      jump\t// out\n        /* \"learning.sol\":1728:1828  function getBal(address addr) public view returns (uint)\r... */\n    tag_70:\n        /* \"learning.sol\":1779:1783  uint */\n      0x00\n        /* \"learning.sol\":1808:1814  ledger */\n      0x02\n        /* \"learning.sol\":1808:1820  ledger[addr] */\n      0x00\n        /* \"learning.sol\":1815:1819  addr */\n      dup4\n        /* \"learning.sol\":1808:1820  ledger[addr] */\n      0xffffffffffffffffffffffffffffffffffffffff\n      and\n      0xffffffffffffffffffffffffffffffffffffffff\n      and\n      dup2\n      mstore\n      0x20\n      add\n      swap1\n      dup2\n      mstore\n      0x20\n      add\n      0x00\n      keccak256\n      sload\n        /* \"learning.sol\":1801:1820  return ledger[addr] */\n      swap1\n      pop\n        /* \"learning.sol\":1728:1828  function getBal(address addr) public view returns (uint)\r... */\n      swap2\n      swap1\n      pop\n      jump\t// out\n        /* \"learning.sol\":1078:1149  function setToPending() public {\r... */\n    tag_74:\n        /* \"learning.sol\":1128:1141  Order.Pending */\n      0x00\n        /* \"learning.sol\":1120:1125  order */\n      0x01\n      0x16\n        /* \"learning.sol\":1120:1141  order = Order.Pending */\n      0x0100\n      exp\n      dup2\n      sload\n      dup2\n      0xff\n      mul\n      not\n      and\n      swap1\n      dup4\n      0x03\n      dup2\n      gt\n      iszero\n      tag_190\n      jumpi\n      tag_191\n      tag_192\n      jump\t// in\n    tag_191:\n    tag_190:\n      mul\n      or\n      swap1\n      sstore\n      pop\n        /* \"learning.sol\":1078:1149  function setToPending() public {\r... */\n      jump\t// out\n        /* \"learning.sol\":2317:2376  function makeTrue() public {\r... */\n    tag_77:\n        /* \"learning.sol\":2363:2367  true */\n      0x01\n        /* \"learning.sol\":2355:2360  aBool */\n      dup1\n      0x00\n        /* \"learning.sol\":2355:2367  aBool = true */\n      0x0100\n      exp\n      dup2\n      sload\n      dup2\n      0xff\n      mul\n      not\n      and\n      swap1\n      dup4\n      iszero\n      iszero\n      mul\n      or\n      swap1\n      sstore\n      pop\n        /* \"learning.sol\":2317:2376  function makeTrue() public {\r... */\n      jump\t// out\n        /* \"learning.sol\":118:135  bool public aBool */\n    tag_80:\n      0x01\n      0x00\n      swap1\n      sload\n      swap1\n      0x0100\n      exp\n      swap1\n      div\n      0xff\n      and\n      dup2\n      jump\t// out\n        /* \"learning.sol\":2000:2051  function inc() public {\r... */\n    tag_85:\n        /* \"learning.sol\":2042:2043  1 */\n      0x01\n        /* \"learning.sol\":2033:2038  count */\n      0x00\n      dup1\n        /* \"learning.sol\":2033:2043  count += 1 */\n      dup3\n      dup3\n      sload\n      tag_195\n      swap2\n      swap1\n      tag_177\n      jump\t// in\n    tag_195:\n      swap3\n      pop\n      pop\n      dup2\n      swap1\n      sstore\n      pop\n        /* \"learning.sol\":2000:2051  function inc() public {\r... */\n      jump\t// out\n        /* \"learning.sol\":143:176  address payable public MY_ADDRESS */\n    tag_88:\n      0x01\n      dup1\n      sload\n      swap1\n      0x0100\n      exp\n      swap1\n      div\n      0xffffffffffffffffffffffffffffffffffffffff\n      and\n      dup2\n      jump\t// out\n        /* \"learning.sol\":1641:1720  function incBal(address addr) public\r... */\n    tag_94:\n        /* \"learning.sol\":1710:1711  1 */\n      0x01\n        /* \"learning.sol\":1694:1700  ledger */\n      0x02\n        /* \"learning.sol\":1694:1706  ledger[addr] */\n      0x00\n        /* \"learning.sol\":1701:1705  addr */\n      dup4\n        /* \"learning.sol\":1694:1706  ledger[addr] */\n      0xffffffffffffffffffffffffffffffffffffffff\n      and\n      0xffffffffffffffffffffffffffffffffffffffff\n      and\n      dup2\n      mstore\n      0x20\n      add\n      swap1\n      dup2\n      mstore\n      0x20\n      add\n      0x00\n      keccak256\n      0x00\n        /* \"learning.sol\":1694:1711  ledger[addr] += 1 */\n      dup3\n      dup3\n      sload\n      tag_197\n      swap2\n      swap1\n      tag_177\n      jump\t// in\n    tag_197:\n      swap3\n      pop\n      pop\n      dup2\n      swap1\n      sstore\n      pop\n        /* \"learning.sol\":1641:1720  function incBal(address addr) public\r... */\n      pop\n      jump\t// out\n        /* \"learning.sol\":183:267  address public immutable NOT_MY_ADDRESS = 0x777788889999AaAAbBbbCcccddDdeeeEfFFfCcCc */\n    tag_97:\n      immutable(\"0x1a192fabce13988b84994d4296e6cdc418d55e2f1d7f942188d4040b94fc57ac\")\n      dup2\n      jump\t// out\n        /* \"learning.sol\":2384:2445  function makeFalse() public {\r... */\n    tag_102:\n        /* \"learning.sol\":2431:2436  false */\n      0x00\n        /* \"learning.sol\":2423:2428  aBool */\n      0x01\n      0x00\n        /* \"learning.sol\":2423:2436  aBool = false */\n      0x0100\n      exp\n      dup2\n      sload\n      dup2\n      0xff\n      mul\n      not\n      and\n      swap1\n      dup4\n      iszero\n      iszero\n      mul\n      or\n      swap1\n      sstore\n      pop\n        /* \"learning.sol\":2384:2445  function makeFalse() public {\r... */\n      jump\t// out\n        /* \"learning.sol\":2990:3290  function ternary(uint _x) public pure returns (uint) {\r... */\n    tag_106:\n        /* \"learning.sol\":3037:3041  uint */\n      0x00\n        /* \"learning.sol\":3272:3274  10 */\n      0x0a\n        /* \"learning.sol\":3267:3269  _x */\n      dup3\n        /* \"learning.sol\":3267:3274  _x < 10 */\n      lt\n        /* \"learning.sol\":3267:3282  _x < 10 ? 1 : 2 */\n      tag_200\n      jumpi\n        /* \"learning.sol\":3281:3282  2 */\n      0x02\n        /* \"learning.sol\":3267:3282  _x < 10 ? 1 : 2 */\n      jump(tag_201)\n    tag_200:\n        /* \"learning.sol\":3277:3278  1 */\n      0x01\n        /* \"learning.sol\":3267:3282  _x < 10 ? 1 : 2 */\n    tag_201:\n        /* \"learning.sol\":3260:3282  return _x < 10 ? 1 : 2 */\n      0xff\n      and\n      swap1\n      pop\n        /* \"learning.sol\":2990:3290  function ternary(uint _x) public pure returns (uint) {\r... */\n      swap2\n      swap1\n      pop\n      jump\t// out\n        /* \"learning.sol\":1878:1951  function get() public view returns (uint) {\r... */\n    tag_110:\n        /* \"learning.sol\":1914:1918  uint */\n      0x00\n        /* \"learning.sol\":1938:1943  count */\n      dup1\n      sload\n        /* \"learning.sol\":1931:1943  return count */\n      swap1\n      pop\n        /* \"learning.sol\":1878:1951  function get() public view returns (uint) {\r... */\n      swap1\n      jump\t// out\n        /* \"learning.sol\":3641:3865  function getNumbers() public view returns (uint[4] memory)\r... */\n    tag_114:\n        /* \"learning.sol\":3684:3698  uint[4] memory */\n      tag_203\n      tag_204\n      jump\t// in\n    tag_203:\n        /* \"learning.sol\":3716:3735  uint[4] memory nums */\n      tag_206\n      tag_204\n      jump\t// in\n    tag_206:\n        /* \"learning.sol\":3751:3757  uint i */\n      0x00\n        /* \"learning.sol\":3747:3835  for(uint i = 0; i < 4; i++)\r... */\n    tag_207:\n        /* \"learning.sol\":3767:3768  4 */\n      0x04\n        /* \"learning.sol\":3763:3764  i */\n      dup2\n        /* \"learning.sol\":3763:3768  i < 4 */\n      lt\n        /* \"learning.sol\":3747:3835  for(uint i = 0; i < 4; i++)\r... */\n      iszero\n      tag_208\n      jumpi\n        /* \"learning.sol\":3809:3822  maybeRandom() */\n      tag_210\n        /* \"learning.sol\":3809:3820  maybeRandom */\n      tag_58\n        /* \"learning.sol\":3809:3822  maybeRandom() */\n      jump\t// in\n    tag_210:\n        /* \"learning.sol\":3799:3803  nums */\n      dup3\n        /* \"learning.sol\":3804:3805  i */\n      dup3\n        /* \"learning.sol\":3799:3806  nums[i] */\n      0x04\n      dup2\n      lt\n      tag_211\n      jumpi\n      tag_212\n      tag_213\n      jump\t// in\n    tag_212:\n    tag_211:\n      0x20\n      mul\n      add\n        /* \"learning.sol\":3799:3822  nums[i] = maybeRandom() */\n      dup2\n      dup2\n      mstore\n      pop\n      pop\n        /* \"learning.sol\":3770:3773  i++ */\n      dup1\n      dup1\n      tag_214\n      swap1\n      tag_179\n      jump\t// in\n    tag_214:\n      swap2\n      pop\n      pop\n        /* \"learning.sol\":3747:3835  for(uint i = 0; i < 4; i++)\r... */\n      jump(tag_207)\n    tag_208:\n      pop\n        /* \"learning.sol\":3852:3856  nums */\n      dup1\n        /* \"learning.sol\":3845:3856  return nums */\n      swap2\n      pop\n      pop\n        /* \"learning.sol\":3641:3865  function getNumbers() public view returns (uint[4] memory)\r... */\n      swap1\n      jump\t// out\n        /* \"learning.sol\":2208:2309  function double() public {\r... */\n    tag_119:\n        /* \"learning.sol\":2244:2257  uint localVar */\n      0x00\n        /* \"learning.sol\":2260:2265  2 wei */\n      0x02\n        /* \"learning.sol\":2244:2265  uint localVar = 2 wei */\n      swap1\n      pop\n        /* \"learning.sol\":2292:2300  localVar */\n      dup1\n        /* \"learning.sol\":2284:2289  count */\n      sload(0x00)\n        /* \"learning.sol\":2284:2300  count * localVar */\n      tag_216\n      swap2\n      swap1\n      tag_217\n      jump\t// in\n    tag_216:\n        /* \"learning.sol\":2277:2282  count */\n      0x00\n        /* \"learning.sol\":2277:2300  count= count * localVar */\n      dup2\n      swap1\n      sstore\n      pop\n        /* \"learning.sol\":2233:2309  {\r... */\n      pop\n        /* \"learning.sol\":2208:2309  function double() public {\r... */\n      jump\t// out\n        /* \"learning.sol\":1258:1434  function createOrder(string calldata tix, uint price) public pure\r... */\n    tag_124:\n        /* \"learning.sol\":1340:1363  orderEntry memory entry */\n      tag_219\n      tag_220\n      jump\t// in\n    tag_219:\n        /* \"learning.sol\":1390:1393  tix */\n      dup4\n      dup4\n        /* \"learning.sol\":1375:1393  entry.ticker = tix */\n      dup1\n      dup1\n      0x1f\n      add\n      0x20\n      dup1\n      swap2\n      div\n      mul\n      0x20\n      add\n      mload(0x40)\n      swap1\n      dup2\n      add\n      0x40\n      mstore\n      dup1\n      swap4\n      swap3\n      swap2\n      swap1\n      dup2\n      dup2\n      mstore\n      0x20\n      add\n      dup4\n      dup4\n      dup1\n      dup3\n      dup5\n      calldatacopy\n      0x00\n      dup2\n      dup5\n      add\n      mstore\n      not(0x1f)\n      0x1f\n      dup3\n      add\n      and\n      swap1\n      pop\n      dup1\n      dup4\n      add\n      swap3\n      pop\n      pop\n      pop\n      pop\n      pop\n      pop\n      pop\n        /* \"learning.sol\":1375:1380  entry */\n      dup2\n        /* \"learning.sol\":1375:1387  entry.ticker */\n      0x00\n      add\n        /* \"learning.sol\":1375:1393  entry.ticker = tix */\n      dup2\n      swap1\n      mstore\n      pop\n        /* \"learning.sol\":1419:1424  price */\n      dup2\n        /* \"learning.sol\":1405:1410  entry */\n      dup2\n        /* \"learning.sol\":1405:1416  entry.price */\n      0x20\n      add\n        /* \"learning.sol\":1405:1424  entry.price = price */\n      dup2\n      dup2\n      mstore\n      pop\n      pop\n        /* \"learning.sol\":1329:1434  {\r... */\n      pop\n        /* \"learning.sol\":1258:1434  function createOrder(string calldata tix, uint price) public pure\r... */\n      pop\n      pop\n      pop\n      jump\t// out\n        /* \"learning.sol\":992:1070  function setOrder(Order orderType) public {\r... */\n    tag_129:\n        /* \"learning.sol\":1053:1062  orderType */\n      dup1\n        /* \"learning.sol\":1045:1050  order */\n      0x01\n      0x16\n        /* \"learning.sol\":1045:1062  order = orderType */\n      0x0100\n      exp\n      dup2\n      sload\n      dup2\n      0xff\n      mul\n      not\n      and\n      swap1\n      dup4\n      0x03\n      dup2\n      gt\n      iszero\n      tag_222\n      jumpi\n      tag_223\n      tag_192\n      jump\t// in\n    tag_223:\n    tag_222:\n      mul\n      or\n      swap1\n      sstore\n      pop\n        /* \"learning.sol\":992:1070  function setOrder(Order orderType) public {\r... */\n      pop\n      jump\t// out\n        /* \"learning.sol\":2100:2200  function dec() public {\r... */\n    tag_132:\n        /* \"learning.sol\":2191:2192  1 */\n      0x01\n        /* \"learning.sol\":2182:2187  count */\n      0x00\n      dup1\n        /* \"learning.sol\":2182:2192  count -= 1 */\n      dup3\n      dup3\n      sload\n      tag_225\n      swap2\n      swap1\n      tag_226\n      jump\t// in\n    tag_225:\n      swap3\n      pop\n      pop\n      dup2\n      swap1\n      sstore\n      pop\n        /* \"learning.sol\":2100:2200  function dec() public {\r... */\n      jump\t// out\n        /* \"learning.sol\":3873:4004  function testRequire(uint _in) public\r... */\n    tag_136:\n        /* \"learning.sol\":3941:3943  16 */\n      0x10\n        /* \"learning.sol\":3935:3938  _in */\n      dup2\n        /* \"learning.sol\":3935:3943  _in > 16 */\n      gt\n        /* \"learning.sol\":3927:3977  require(_in > 16, \"Input must be greater than 16\") */\n      tag_228\n      jumpi\n      mload(0x40)\n      0x08c379a000000000000000000000000000000000000000000000000000000000\n      dup2\n      mstore\n      0x04\n      add\n      tag_229\n      swap1\n      tag_230\n      jump\t// in\n    tag_229:\n      mload(0x40)\n      dup1\n      swap2\n      sub\n      swap1\n      revert\n    tag_228:\n        /* \"learning.sol\":3988:3996  loopUp() */\n      tag_231\n        /* \"learning.sol\":3988:3994  loopUp */\n      tag_55\n        /* \"learning.sol\":3988:3996  loopUp() */\n      jump\t// in\n    tag_231:\n        /* \"learning.sol\":3873:4004  function testRequire(uint _in) public\r... */\n      pop\n      jump\t// out\n        /* \"learning.sol\":872:890  Order public order */\n    tag_139:\n      0x01\n      0x16\n      swap1\n      sload\n      swap1\n      0x0100\n      exp\n      swap1\n      div\n      0xff\n      and\n      dup2\n      jump\t// out\n        /* \"learning.sol\":900:984  function getOrder() public view returns(Order)\r... */\n    tag_144:\n        /* \"learning.sol\":940:945  Order */\n      0x00\n        /* \"learning.sol\":970:975  order */\n      0x01\n      0x16\n      swap1\n      sload\n      swap1\n      0x0100\n      exp\n      swap1\n      div\n      0xff\n      and\n        /* \"learning.sol\":963:975  return order */\n      swap1\n      pop\n        /* \"learning.sol\":900:984  function getOrder() public view returns(Order)\r... */\n      swap1\n      jump\t// out\n        /* \"learning.sol\":2646:2735  function whois() public view returns (address)\r... */\n    tag_148:\n        /* \"learning.sol\":2684:2691  address */\n      0x00\n        /* \"learning.sol\":2716:2726  msg.sender */\n      caller\n        /* \"learning.sol\":2709:2726  return msg.sender */\n      swap1\n      pop\n        /* \"learning.sol\":2646:2735  function whois() public view returns (address)\r... */\n      swap1\n      jump\t// out\n        /* \"learning.sol\":2453:2537  function getABool() public view returns (bool)\r... */\n    tag_152:\n        /* \"learning.sol\":2494:2498  bool */\n      0x00\n        /* \"learning.sol\":2523:2528  aBool */\n      0x01\n      0x00\n      swap1\n      sload\n      swap1\n      0x0100\n      exp\n      swap1\n      div\n      0xff\n      and\n        /* \"learning.sol\":2516:2528  return aBool */\n      swap1\n      pop\n        /* \"learning.sol\":2453:2537  function getABool() public view returns (bool)\r... */\n      swap1\n      jump\t// out\n        /* \"learning.sol\":4451:4574  function test() public {\r... */\n    tag_156:\n        /* \"learning.sol\":4494:4504  msg.sender */\n      caller\n        /* \"learning.sol\":4490:4521  Log(msg.sender, \"Hello World!\") */\n      0xffffffffffffffffffffffffffffffffffffffff\n      and\n      0x0738f4da267a110d810e6e89fc59e46be6de0c37b1d5cd559b267dc3688e74e0\n      mload(0x40)\n      tag_236\n      swap1\n      tag_237\n      jump\t// in\n    tag_236:\n      mload(0x40)\n      dup1\n      swap2\n      sub\n      swap1\n      log2\n        /* \"learning.sol\":4541:4551  msg.sender */\n      caller\n        /* \"learning.sol\":4537:4566  Log(msg.sender, \"Hello EVM!\") */\n      0xffffffffffffffffffffffffffffffffffffffff\n      and\n      0x0738f4da267a110d810e6e89fc59e46be6de0c37b1d5cd559b267dc3688e74e0\n      mload(0x40)\n      tag_238\n      swap1\n      tag_239\n      jump\t// in\n    tag_238:\n      mload(0x40)\n      dup1\n      swap2\n      sub\n      swap1\n      log2\n        /* \"learning.sol\":4451:4574  function test() public {\r... */\n      jump\t// out\n        /* \"learning.sol\":1442:1480  mapping(address => uint) public ledger */\n    tag_160:\n      mstore(0x20, 0x02)\n      dup1\n      0x00\n      mstore\n      keccak256(0x00, 0x40)\n      0x00\n      swap2\n      pop\n      swap1\n      pop\n      sload\n      dup2\n      jump\t// out\n        /* \"learning.sol\":2743:2978  function transactMe(uint updoot) public returns (uint) // what is view and why can't it be used if the state is being messed with? (view ensures the state is not modified)\r... */\n    tag_165:\n        /* \"learning.sol\":2792:2796  uint */\n      0x00\n        /* \"learning.sol\":2939:2945  updoot */\n      dup2\n        /* \"learning.sol\":2931:2936  count */\n      0x00\n        /* \"learning.sol\":2931:2945  count = updoot */\n      dup2\n      swap1\n      sstore\n      pop\n        /* \"learning.sol\":2964:2969  count */\n      sload(0x00)\n        /* \"learning.sol\":2957:2969  return count */\n      swap1\n      pop\n        /* \"learning.sol\":2743:2978  function transactMe(uint updoot) public returns (uint) // what is view and why can't it be used if the state is being messed with? (view ensures the state is not modified)\r... */\n      swap2\n      swap1\n      pop\n      jump\t// out\n        /* \"learning.sol\":2545:2638  function getStamp() public view returns (uint)\r... */\n    tag_169:\n        /* \"learning.sol\":2586:2590  uint */\n      0x00\n        /* \"learning.sol\":2615:2630  block.timestamp */\n      timestamp\n        /* \"learning.sol\":2608:2630  return block.timestamp */\n      swap1\n      pop\n        /* \"learning.sol\":2545:2638  function getStamp() public view returns (uint)\r... */\n      swap1\n      jump\t// out\n    tag_204:\n      mload(0x40)\n      dup1\n      0x80\n      add\n      0x40\n      mstore\n      dup1\n      0x04\n      swap1\n      0x20\n      dup3\n      mul\n      dup1\n      calldatasize\n      dup4\n      calldatacopy\n      dup1\n      dup3\n      add\n      swap2\n      pop\n      pop\n      swap1\n      pop\n      pop\n      swap1\n      jump\t// out\n    tag_220:\n      mload(0x40)\n      dup1\n      0x40\n      add\n      0x40\n      mstore\n      dup1\n      0x60\n      dup2\n      mstore\n      0x20\n      add\n      0x00\n      dup2\n      mstore\n      pop\n      swap1\n      jump\t// out\n        /* \"#utility.yul\":7:146   */\n    tag_243:\n        /* \"#utility.yul\":53:58   */\n      0x00\n        /* \"#utility.yul\":91:97   */\n      dup2\n        /* \"#utility.yul\":78:98   */\n      calldataload\n        /* \"#utility.yul\":69:98   */\n      swap1\n      pop\n        /* \"#utility.yul\":107:140   */\n      tag_245\n        /* \"#utility.yul\":134:139   */\n      dup2\n        /* \"#utility.yul\":107:140   */\n      tag_246\n      jump\t// in\n    tag_245:\n        /* \"#utility.yul\":7:146   */\n      swap3\n      swap2\n      pop\n      pop\n      jump\t// out\n        /* \"#utility.yul\":152:307   */\n    tag_247:\n        /* \"#utility.yul\":206:211   */\n      0x00\n        /* \"#utility.yul\":244:250   */\n      dup2\n        /* \"#utility.yul\":231:251   */\n      calldataload\n        /* \"#utility.yul\":222:251   */\n      swap1\n      pop\n        /* \"#utility.yul\":260:301   */\n      tag_249\n        /* \"#utility.yul\":295:300   */\n      dup2\n        /* \"#utility.yul\":260:301   */\n      tag_250\n      jump\t// in\n    tag_249:\n        /* \"#utility.yul\":152:307   */\n      swap3\n      swap2\n      pop\n      pop\n      jump\t// out\n        /* \"#utility.yul\":327:880   */\n    tag_251:\n        /* \"#utility.yul\":385:393   */\n      0x00\n        /* \"#utility.yul\":395:401   */\n      dup1\n        /* \"#utility.yul\":445:448   */\n      dup4\n        /* \"#utility.yul\":438:442   */\n      0x1f\n        /* \"#utility.yul\":430:436   */\n      dup5\n        /* \"#utility.yul\":426:443   */\n      add\n        /* \"#utility.yul\":422:449   */\n      slt\n        /* \"#utility.yul\":412:534   */\n      tag_253\n      jumpi\n        /* \"#utility.yul\":453:532   */\n      tag_254\n      tag_255\n      jump\t// in\n    tag_254:\n        /* \"#utility.yul\":412:534   */\n    tag_253:\n        /* \"#utility.yul\":566:572   */\n      dup3\n        /* \"#utility.yul\":553:573   */\n      calldataload\n        /* \"#utility.yul\":543:573   */\n      swap1\n      pop\n        /* \"#utility.yul\":596:614   */\n      0xffffffffffffffff\n        /* \"#utility.yul\":588:594   */\n      dup2\n        /* \"#utility.yul\":585:615   */\n      gt\n        /* \"#utility.yul\":582:699   */\n      iszero\n      tag_256\n      jumpi\n        /* \"#utility.yul\":618:697   */\n      tag_257\n      tag_258\n      jump\t// in\n    tag_257:\n        /* \"#utility.yul\":582:699   */\n    tag_256:\n        /* \"#utility.yul\":732:736   */\n      0x20\n        /* \"#utility.yul\":724:730   */\n      dup4\n        /* \"#utility.yul\":720:737   */\n      add\n        /* \"#utility.yul\":708:737   */\n      swap2\n      pop\n        /* \"#utility.yul\":786:789   */\n      dup4\n        /* \"#utility.yul\":778:782   */\n      0x01\n        /* \"#utility.yul\":770:776   */\n      dup3\n        /* \"#utility.yul\":766:783   */\n      mul\n        /* \"#utility.yul\":756:764   */\n      dup4\n        /* \"#utility.yul\":752:784   */\n      add\n        /* \"#utility.yul\":749:790   */\n      gt\n        /* \"#utility.yul\":746:874   */\n      iszero\n      tag_259\n      jumpi\n        /* \"#utility.yul\":793:872   */\n      tag_260\n      tag_261\n      jump\t// in\n    tag_260:\n        /* \"#utility.yul\":746:874   */\n    tag_259:\n        /* \"#utility.yul\":327:880   */\n      swap3\n      pop\n      swap3\n      swap1\n      pop\n      jump\t// out\n        /* \"#utility.yul\":886:1025   */\n    tag_262:\n        /* \"#utility.yul\":932:937   */\n      0x00\n        /* \"#utility.yul\":970:976   */\n      dup2\n        /* \"#utility.yul\":957:977   */\n      calldataload\n        /* \"#utility.yul\":948:977   */\n      swap1\n      pop\n        /* \"#utility.yul\":986:1019   */\n      tag_264\n        /* \"#utility.yul\":1013:1018   */\n      dup2\n        /* \"#utility.yul\":986:1019   */\n      tag_265\n      jump\t// in\n    tag_264:\n        /* \"#utility.yul\":886:1025   */\n      swap3\n      swap2\n      pop\n      pop\n      jump\t// out\n        /* \"#utility.yul\":1031:1360   */\n    tag_69:\n        /* \"#utility.yul\":1090:1096   */\n      0x00\n        /* \"#utility.yul\":1139:1141   */\n      0x20\n        /* \"#utility.yul\":1127:1136   */\n      dup3\n        /* \"#utility.yul\":1118:1125   */\n      dup5\n        /* \"#utility.yul\":1114:1137   */\n      sub\n        /* \"#utility.yul\":1110:1142   */\n      slt\n        /* \"#utility.yul\":1107:1226   */\n      iszero\n      tag_267\n      jumpi\n        /* \"#utility.yul\":1145:1224   */\n      tag_268\n      tag_269\n      jump\t// in\n    tag_268:\n        /* \"#utility.yul\":1107:1226   */\n    tag_267:\n        /* \"#utility.yul\":1265:1266   */\n      0x00\n        /* \"#utility.yul\":1290:1343   */\n      tag_270\n        /* \"#utility.yul\":1335:1342   */\n      dup5\n        /* \"#utility.yul\":1326:1332   */\n      dup3\n        /* \"#utility.yul\":1315:1324   */\n      dup6\n        /* \"#utility.yul\":1311:1333   */\n      add\n        /* \"#utility.yul\":1290:1343   */\n      tag_243\n      jump\t// in\n    tag_270:\n        /* \"#utility.yul\":1280:1343   */\n      swap2\n      pop\n        /* \"#utility.yul\":1236:1353   */\n      pop\n        /* \"#utility.yul\":1031:1360   */\n      swap3\n      swap2\n      pop\n      pop\n      jump\t// out\n        /* \"#utility.yul\":1366:1711   */\n    tag_128:\n        /* \"#utility.yul\":1433:1439   */\n      0x00\n        /* \"#utility.yul\":1482:1484   */\n      0x20\n        /* \"#utility.yul\":1470:1479   */\n      dup3\n        /* \"#utility.yul\":1461:1468   */\n      dup5\n        /* \"#utility.yul\":1457:1480   */\n      sub\n        /* \"#utility.yul\":1453:1485   */\n      slt\n        /* \"#utility.yul\":1450:1569   */\n      iszero\n      tag_272\n      jumpi\n        /* \"#utility.yul\":1488:1567   */\n      tag_273\n      tag_269\n      jump\t// in\n    tag_273:\n        /* \"#utility.yul\":1450:1569   */\n    tag_272:\n        /* \"#utility.yul\":1608:1609   */\n      0x00\n        /* \"#utility.yul\":1633:1694   */\n      tag_274\n        /* \"#utility.yul\":1686:1693   */\n      dup5\n        /* \"#utility.yul\":1677:1683   */\n      dup3\n        /* \"#utility.yul\":1666:1675   */\n      dup6\n        /* \"#utility.yul\":1662:1684   */\n      add\n        /* \"#utility.yul\":1633:1694   */\n      tag_247\n      jump\t// in\n    tag_274:\n        /* \"#utility.yul\":1623:1694   */\n      swap2\n      pop\n        /* \"#utility.yul\":1579:1704   */\n      pop\n        /* \"#utility.yul\":1366:1711   */\n      swap3\n      swap2\n      pop\n      pop\n      jump\t// out\n        /* \"#utility.yul\":1717:2391   */\n    tag_123:\n        /* \"#utility.yul\":1797:1803   */\n      0x00\n        /* \"#utility.yul\":1805:1811   */\n      dup1\n        /* \"#utility.yul\":1813:1819   */\n      0x00\n        /* \"#utility.yul\":1862:1864   */\n      0x40\n        /* \"#utility.yul\":1850:1859   */\n      dup5\n        /* \"#utility.yul\":1841:1848   */\n      dup7\n        /* \"#utility.yul\":1837:1860   */\n      sub\n        /* \"#utility.yul\":1833:1865   */\n      slt\n        /* \"#utility.yul\":1830:1949   */\n      iszero\n      tag_276\n      jumpi\n        /* \"#utility.yul\":1868:1947   */\n      tag_277\n      tag_269\n      jump\t// in\n    tag_277:\n        /* \"#utility.yul\":1830:1949   */\n    tag_276:\n        /* \"#utility.yul\":2016:2017   */\n      0x00\n        /* \"#utility.yul\":2005:2014   */\n      dup5\n        /* \"#utility.yul\":2001:2018   */\n      add\n        /* \"#utility.yul\":1988:2019   */\n      calldataload\n        /* \"#utility.yul\":2046:2064   */\n      0xffffffffffffffff\n        /* \"#utility.yul\":2038:2044   */\n      dup2\n        /* \"#utility.yul\":2035:2065   */\n      gt\n        /* \"#utility.yul\":2032:2149   */\n      iszero\n      tag_278\n      jumpi\n        /* \"#utility.yul\":2068:2147   */\n      tag_279\n      tag_280\n      jump\t// in\n    tag_279:\n        /* \"#utility.yul\":2032:2149   */\n    tag_278:\n        /* \"#utility.yul\":2181:2246   */\n      tag_281\n        /* \"#utility.yul\":2238:2245   */\n      dup7\n        /* \"#utility.yul\":2229:2235   */\n      dup3\n        /* \"#utility.yul\":2218:2227   */\n      dup8\n        /* \"#utility.yul\":2214:2236   */\n      add\n        /* \"#utility.yul\":2181:2246   */\n      tag_251\n      jump\t// in\n    tag_281:\n        /* \"#utility.yul\":2163:2246   */\n      swap4\n      pop\n      swap4\n      pop\n        /* \"#utility.yul\":1959:2256   */\n      pop\n        /* \"#utility.yul\":2295:2297   */\n      0x20\n        /* \"#utility.yul\":2321:2374   */\n      tag_282\n        /* \"#utility.yul\":2366:2373   */\n      dup7\n        /* \"#utility.yul\":2357:2363   */\n      dup3\n        /* \"#utility.yul\":2346:2355   */\n      dup8\n        /* \"#utility.yul\":2342:2364   */\n      add\n        /* \"#utility.yul\":2321:2374   */\n      tag_262\n      jump\t// in\n    tag_282:\n        /* \"#utility.yul\":2311:2374   */\n      swap2\n      pop\n        /* \"#utility.yul\":2266:2384   */\n      pop\n        /* \"#utility.yul\":1717:2391   */\n      swap3\n      pop\n      swap3\n      pop\n      swap3\n      jump\t// out\n        /* \"#utility.yul\":2397:2726   */\n    tag_63:\n        /* \"#utility.yul\":2456:2462   */\n      0x00\n        /* \"#utility.yul\":2505:2507   */\n      0x20\n        /* \"#utility.yul\":2493:2502   */\n      dup3\n        /* \"#utility.yul\":2484:2491   */\n      dup5\n        /* \"#utility.yul\":2480:2503   */\n      sub\n        /* \"#utility.yul\":2476:2508   */\n      slt\n        /* \"#utility.yul\":2473:2592   */\n      iszero\n      tag_284\n      jumpi\n        /* \"#utility.yul\":2511:2590   */\n      tag_285\n      tag_269\n      jump\t// in\n    tag_285:\n        /* \"#utility.yul\":2473:2592   */\n    tag_284:\n        /* \"#utility.yul\":2631:2632   */\n      0x00\n        /* \"#utility.yul\":2656:2709   */\n      tag_286\n        /* \"#utility.yul\":2701:2708   */\n      dup5\n        /* \"#utility.yul\":2692:2698   */\n      dup3\n        /* \"#utility.yul\":2681:2690   */\n      dup6\n        /* \"#utility.yul\":2677:2699   */\n      add\n        /* \"#utility.yul\":2656:2709   */\n      tag_262\n      jump\t// in\n    tag_286:\n        /* \"#utility.yul\":2646:2709   */\n      swap2\n      pop\n        /* \"#utility.yul\":2602:2719   */\n      pop\n        /* \"#utility.yul\":2397:2726   */\n      swap3\n      swap2\n      pop\n      pop\n      jump\t// out\n        /* \"#utility.yul\":2732:2911   */\n    tag_287:\n        /* \"#utility.yul\":2801:2811   */\n      0x00\n        /* \"#utility.yul\":2822:2868   */\n      tag_289\n        /* \"#utility.yul\":2864:2867   */\n      dup4\n        /* \"#utility.yul\":2856:2862   */\n      dup4\n        /* \"#utility.yul\":2822:2868   */\n      tag_290\n      jump\t// in\n    tag_289:\n        /* \"#utility.yul\":2900:2904   */\n      0x20\n        /* \"#utility.yul\":2895:2898   */\n      dup4\n        /* \"#utility.yul\":2891:2905   */\n      add\n        /* \"#utility.yul\":2877:2905   */\n      swap1\n      pop\n        /* \"#utility.yul\":2732:2911   */\n      swap3\n      swap2\n      pop\n      pop\n      jump\t// out\n        /* \"#utility.yul\":2917:3059   */\n    tag_291:\n        /* \"#utility.yul\":3020:3052   */\n      tag_293\n        /* \"#utility.yul\":3046:3051   */\n      dup2\n        /* \"#utility.yul\":3020:3052   */\n      tag_294\n      jump\t// in\n    tag_293:\n        /* \"#utility.yul\":3015:3018   */\n      dup3\n        /* \"#utility.yul\":3008:3053   */\n      mstore\n        /* \"#utility.yul\":2917:3059   */\n      pop\n      pop\n      jump\t// out\n        /* \"#utility.yul\":3065:3183   */\n    tag_295:\n        /* \"#utility.yul\":3152:3176   */\n      tag_297\n        /* \"#utility.yul\":3170:3175   */\n      dup2\n        /* \"#utility.yul\":3152:3176   */\n      tag_298\n      jump\t// in\n    tag_297:\n        /* \"#utility.yul\":3147:3150   */\n      dup3\n        /* \"#utility.yul\":3140:3177   */\n      mstore\n        /* \"#utility.yul\":3065:3183   */\n      pop\n      pop\n      jump\t// out\n        /* \"#utility.yul\":3221:3915   */\n    tag_299:\n        /* \"#utility.yul\":3357:3409   */\n      tag_301\n        /* \"#utility.yul\":3403:3408   */\n      dup2\n        /* \"#utility.yul\":3357:3409   */\n      tag_302\n      jump\t// in\n    tag_301:\n        /* \"#utility.yul\":3425:3509   */\n      tag_303\n        /* \"#utility.yul\":3502:3508   */\n      dup2\n        /* \"#utility.yul\":3497:3500   */\n      dup5\n        /* \"#utility.yul\":3425:3509   */\n      tag_304\n      jump\t// in\n    tag_303:\n        /* \"#utility.yul\":3418:3509   */\n      swap3\n      pop\n        /* \"#utility.yul\":3533:3587   */\n      tag_305\n        /* \"#utility.yul\":3581:3586   */\n      dup3\n        /* \"#utility.yul\":3533:3587   */\n      tag_306\n      jump\t// in\n    tag_305:\n        /* \"#utility.yul\":3610:3617   */\n      dup1\n        /* \"#utility.yul\":3641:3642   */\n      0x00\n        /* \"#utility.yul\":3626:3908   */\n    tag_307:\n        /* \"#utility.yul\":3651:3657   */\n      dup4\n        /* \"#utility.yul\":3648:3649   */\n      dup2\n        /* \"#utility.yul\":3645:3658   */\n      lt\n        /* \"#utility.yul\":3626:3908   */\n      iszero\n      tag_309\n      jumpi\n        /* \"#utility.yul\":3727:3733   */\n      dup2\n        /* \"#utility.yul\":3721:3734   */\n      mload\n        /* \"#utility.yul\":3754:3817   */\n      tag_310\n        /* \"#utility.yul\":3813:3816   */\n      dup8\n        /* \"#utility.yul\":3798:3811   */\n      dup3\n        /* \"#utility.yul\":3754:3817   */\n      tag_287\n      jump\t// in\n    tag_310:\n        /* \"#utility.yul\":3747:3817   */\n      swap7\n      pop\n        /* \"#utility.yul\":3840:3898   */\n      tag_311\n        /* \"#utility.yul\":3891:3897   */\n      dup4\n        /* \"#utility.yul\":3840:3898   */\n      tag_312\n      jump\t// in\n    tag_311:\n        /* \"#utility.yul\":3830:3898   */\n      swap3\n      pop\n        /* \"#utility.yul\":3686:3908   */\n      pop\n        /* \"#utility.yul\":3673:3674   */\n      0x01\n        /* \"#utility.yul\":3670:3671   */\n      dup2\n        /* \"#utility.yul\":3666:3675   */\n      add\n        /* \"#utility.yul\":3661:3675   */\n      swap1\n      pop\n        /* \"#utility.yul\":3626:3908   */\n      jump(tag_307)\n    tag_309:\n        /* \"#utility.yul\":3630:3644   */\n      pop\n        /* \"#utility.yul\":3333:3915   */\n      pop\n      pop\n      pop\n        /* \"#utility.yul\":3221:3915   */\n      pop\n      pop\n      jump\t// out\n        /* \"#utility.yul\":3921:4030   */\n    tag_313:\n        /* \"#utility.yul\":4002:4023   */\n      tag_315\n        /* \"#utility.yul\":4017:4022   */\n      dup2\n        /* \"#utility.yul\":4002:4023   */\n      tag_316\n      jump\t// in\n    tag_315:\n        /* \"#utility.yul\":3997:4000   */\n      dup3\n        /* \"#utility.yul\":3990:4024   */\n      mstore\n        /* \"#utility.yul\":3921:4030   */\n      pop\n      pop\n      jump\t// out\n        /* \"#utility.yul\":4036:4179   */\n    tag_317:\n        /* \"#utility.yul\":4129:4172   */\n      tag_319\n        /* \"#utility.yul\":4166:4171   */\n      dup2\n        /* \"#utility.yul\":4129:4172   */\n      tag_320\n      jump\t// in\n    tag_319:\n        /* \"#utility.yul\":4124:4127   */\n      dup3\n        /* \"#utility.yul\":4117:4173   */\n      mstore\n        /* \"#utility.yul\":4036:4179   */\n      pop\n      pop\n      jump\t// out\n        /* \"#utility.yul\":4185:4551   */\n    tag_321:\n        /* \"#utility.yul\":4327:4330   */\n      0x00\n        /* \"#utility.yul\":4348:4415   */\n      tag_323\n        /* \"#utility.yul\":4412:4414   */\n      0x0a\n        /* \"#utility.yul\":4407:4410   */\n      dup4\n        /* \"#utility.yul\":4348:4415   */\n      tag_324\n      jump\t// in\n    tag_323:\n        /* \"#utility.yul\":4341:4415   */\n      swap2\n      pop\n        /* \"#utility.yul\":4424:4517   */\n      tag_325\n        /* \"#utility.yul\":4513:4516   */\n      dup3\n        /* \"#utility.yul\":4424:4517   */\n      tag_326\n      jump\t// in\n    tag_325:\n        /* \"#utility.yul\":4542:4544   */\n      0x20\n        /* \"#utility.yul\":4537:4540   */\n      dup3\n        /* \"#utility.yul\":4533:4545   */\n      add\n        /* \"#utility.yul\":4526:4545   */\n      swap1\n      pop\n        /* \"#utility.yul\":4185:4551   */\n      swap2\n      swap1\n      pop\n      jump\t// out\n        /* \"#utility.yul\":4557:4923   */\n    tag_327:\n        /* \"#utility.yul\":4699:4702   */\n      0x00\n        /* \"#utility.yul\":4720:4787   */\n      tag_329\n        /* \"#utility.yul\":4784:4786   */\n      0x0c\n        /* \"#utility.yul\":4779:4782   */\n      dup4\n        /* \"#utility.yul\":4720:4787   */\n      tag_324\n      jump\t// in\n    tag_329:\n        /* \"#utility.yul\":4713:4787   */\n      swap2\n      pop\n        /* \"#utility.yul\":4796:4889   */\n      tag_330\n        /* \"#utility.yul\":4885:4888   */\n      dup3\n        /* \"#utility.yul\":4796:4889   */\n      tag_331\n      jump\t// in\n    tag_330:\n        /* \"#utility.yul\":4914:4916   */\n      0x20\n        /* \"#utility.yul\":4909:4912   */\n      dup3\n        /* \"#utility.yul\":4905:4917   */\n      add\n        /* \"#utility.yul\":4898:4917   */\n      swap1\n      pop\n        /* \"#utility.yul\":4557:4923   */\n      swap2\n      swap1\n      pop\n      jump\t// out\n        /* \"#utility.yul\":4929:5295   */\n    tag_332:\n        /* \"#utility.yul\":5071:5074   */\n      0x00\n        /* \"#utility.yul\":5092:5159   */\n      tag_334\n        /* \"#utility.yul\":5156:5158   */\n      0x1d\n        /* \"#utility.yul\":5151:5154   */\n      dup4\n        /* \"#utility.yul\":5092:5159   */\n      tag_324\n      jump\t// in\n    tag_334:\n        /* \"#utility.yul\":5085:5159   */\n      swap2\n      pop\n        /* \"#utility.yul\":5168:5261   */\n      tag_335\n        /* \"#utility.yul\":5257:5260   */\n      dup3\n        /* \"#utility.yul\":5168:5261   */\n      tag_336\n      jump\t// in\n    tag_335:\n        /* \"#utility.yul\":5286:5288   */\n      0x20\n        /* \"#utility.yul\":5281:5284   */\n      dup3\n        /* \"#utility.yul\":5277:5289   */\n      add\n        /* \"#utility.yul\":5270:5289   */\n      swap1\n      pop\n        /* \"#utility.yul\":4929:5295   */\n      swap2\n      swap1\n      pop\n      jump\t// out\n        /* \"#utility.yul\":5301:5409   */\n    tag_290:\n        /* \"#utility.yul\":5378:5402   */\n      tag_338\n        /* \"#utility.yul\":5396:5401   */\n      dup2\n        /* \"#utility.yul\":5378:5402   */\n      tag_339\n      jump\t// in\n    tag_338:\n        /* \"#utility.yul\":5373:5376   */\n      dup3\n        /* \"#utility.yul\":5366:5403   */\n      mstore\n        /* \"#utility.yul\":5301:5409   */\n      pop\n      pop\n      jump\t// out\n        /* \"#utility.yul\":5415:5533   */\n    tag_340:\n        /* \"#utility.yul\":5502:5526   */\n      tag_342\n        /* \"#utility.yul\":5520:5525   */\n      dup2\n        /* \"#utility.yul\":5502:5526   */\n      tag_339\n      jump\t// in\n    tag_342:\n        /* \"#utility.yul\":5497:5500   */\n      dup3\n        /* \"#utility.yul\":5490:5527   */\n      mstore\n        /* \"#utility.yul\":5415:5533   */\n      pop\n      pop\n      jump\t// out\n        /* \"#utility.yul\":5539:5761   */\n    tag_99:\n        /* \"#utility.yul\":5632:5636   */\n      0x00\n        /* \"#utility.yul\":5670:5672   */\n      0x20\n        /* \"#utility.yul\":5659:5668   */\n      dup3\n        /* \"#utility.yul\":5655:5673   */\n      add\n        /* \"#utility.yul\":5647:5673   */\n      swap1\n      pop\n        /* \"#utility.yul\":5683:5754   */\n      tag_344\n        /* \"#utility.yul\":5751:5752   */\n      0x00\n        /* \"#utility.yul\":5740:5749   */\n      dup4\n        /* \"#utility.yul\":5736:5753   */\n      add\n        /* \"#utility.yul\":5727:5733   */\n      dup5\n        /* \"#utility.yul\":5683:5754   */\n      tag_295\n      jump\t// in\n    tag_344:\n        /* \"#utility.yul\":5539:5761   */\n      swap3\n      swap2\n      pop\n      pop\n      jump\t// out\n        /* \"#utility.yul\":5767:6021   */\n    tag_90:\n        /* \"#utility.yul\":5876:5880   */\n      0x00\n        /* \"#utility.yul\":5914:5916   */\n      0x20\n        /* \"#utility.yul\":5903:5912   */\n      dup3\n        /* \"#utility.yul\":5899:5917   */\n      add\n        /* \"#utility.yul\":5891:5917   */\n      swap1\n      pop\n        /* \"#utility.yul\":5927:6014   */\n      tag_346\n        /* \"#utility.yul\":6011:6012   */\n      0x00\n        /* \"#utility.yul\":6000:6009   */\n      dup4\n        /* \"#utility.yul\":5996:6013   */\n      add\n        /* \"#utility.yul\":5987:5993   */\n      dup5\n        /* \"#utility.yul\":5927:6014   */\n      tag_291\n      jump\t// in\n    tag_346:\n        /* \"#utility.yul\":5767:6021   */\n      swap3\n      swap2\n      pop\n      pop\n      jump\t// out\n        /* \"#utility.yul\":6027:6342   */\n    tag_116:\n        /* \"#utility.yul\":6166:6170   */\n      0x00\n        /* \"#utility.yul\":6204:6207   */\n      0x80\n        /* \"#utility.yul\":6193:6202   */\n      dup3\n        /* \"#utility.yul\":6189:6208   */\n      add\n        /* \"#utility.yul\":6181:6208   */\n      swap1\n      pop\n        /* \"#utility.yul\":6218:6335   */\n      tag_348\n        /* \"#utility.yul\":6332:6333   */\n      0x00\n        /* \"#utility.yul\":6321:6330   */\n      dup4\n        /* \"#utility.yul\":6317:6334   */\n      add\n        /* \"#utility.yul\":6308:6314   */\n      dup5\n        /* \"#utility.yul\":6218:6335   */\n      tag_299\n      jump\t// in\n    tag_348:\n        /* \"#utility.yul\":6027:6342   */\n      swap3\n      swap2\n      pop\n      pop\n      jump\t// out\n        /* \"#utility.yul\":6348:6558   */\n    tag_82:\n        /* \"#utility.yul\":6435:6439   */\n      0x00\n        /* \"#utility.yul\":6473:6475   */\n      0x20\n        /* \"#utility.yul\":6462:6471   */\n      dup3\n        /* \"#utility.yul\":6458:6476   */\n      add\n        /* \"#utility.yul\":6450:6476   */\n      swap1\n      pop\n        /* \"#utility.yul\":6486:6551   */\n      tag_350\n        /* \"#utility.yul\":6548:6549   */\n      0x00\n        /* \"#utility.yul\":6537:6546   */\n      dup4\n        /* \"#utility.yul\":6533:6550   */\n      add\n        /* \"#utility.yul\":6524:6530   */\n      dup5\n        /* \"#utility.yul\":6486:6551   */\n      tag_313\n      jump\t// in\n    tag_350:\n        /* \"#utility.yul\":6348:6558   */\n      swap3\n      swap2\n      pop\n      pop\n      jump\t// out\n        /* \"#utility.yul\":6564:6798   */\n    tag_141:\n        /* \"#utility.yul\":6663:6667   */\n      0x00\n        /* \"#utility.yul\":6701:6703   */\n      0x20\n        /* \"#utility.yul\":6690:6699   */\n      dup3\n        /* \"#utility.yul\":6686:6704   */\n      add\n        /* \"#utility.yul\":6678:6704   */\n      swap1\n      pop\n        /* \"#utility.yul\":6714:6791   */\n      tag_352\n        /* \"#utility.yul\":6788:6789   */\n      0x00\n        /* \"#utility.yul\":6777:6786   */\n      dup4\n        /* \"#utility.yul\":6773:6790   */\n      add\n        /* \"#utility.yul\":6764:6770   */\n      dup5\n        /* \"#utility.yul\":6714:6791   */\n      tag_317\n      jump\t// in\n    tag_352:\n        /* \"#utility.yul\":6564:6798   */\n      swap3\n      swap2\n      pop\n      pop\n      jump\t// out\n        /* \"#utility.yul\":6804:7223   */\n    tag_239:\n        /* \"#utility.yul\":6970:6974   */\n      0x00\n        /* \"#utility.yul\":7008:7010   */\n      0x20\n        /* \"#utility.yul\":6997:7006   */\n      dup3\n        /* \"#utility.yul\":6993:7011   */\n      add\n        /* \"#utility.yul\":6985:7011   */\n      swap1\n      pop\n        /* \"#utility.yul\":7057:7066   */\n      dup2\n        /* \"#utility.yul\":7051:7055   */\n      dup2\n        /* \"#utility.yul\":7047:7067   */\n      sub\n        /* \"#utility.yul\":7043:7044   */\n      0x00\n        /* \"#utility.yul\":7032:7041   */\n      dup4\n        /* \"#utility.yul\":7028:7045   */\n      add\n        /* \"#utility.yul\":7021:7068   */\n      mstore\n        /* \"#utility.yul\":7085:7216   */\n      tag_354\n        /* \"#utility.yul\":7211:7215   */\n      dup2\n        /* \"#utility.yul\":7085:7216   */\n      tag_321\n      jump\t// in\n    tag_354:\n        /* \"#utility.yul\":7077:7216   */\n      swap1\n      pop\n        /* \"#utility.yul\":6804:7223   */\n      swap2\n      swap1\n      pop\n      jump\t// out\n        /* \"#utility.yul\":7229:7648   */\n    tag_237:\n        /* \"#utility.yul\":7395:7399   */\n      0x00\n        /* \"#utility.yul\":7433:7435   */\n      0x20\n        /* \"#utility.yul\":7422:7431   */\n      dup3\n        /* \"#utility.yul\":7418:7436   */\n      add\n        /* \"#utility.yul\":7410:7436   */\n      swap1\n      pop\n        /* \"#utility.yul\":7482:7491   */\n      dup2\n        /* \"#utility.yul\":7476:7480   */\n      dup2\n        /* \"#utility.yul\":7472:7492   */\n      sub\n        /* \"#utility.yul\":7468:7469   */\n      0x00\n        /* \"#utility.yul\":7457:7466   */\n      dup4\n        /* \"#utility.yul\":7453:7470   */\n      add\n        /* \"#utility.yul\":7446:7493   */\n      mstore\n        /* \"#utility.yul\":7510:7641   */\n      tag_356\n        /* \"#utility.yul\":7636:7640   */\n      dup2\n        /* \"#utility.yul\":7510:7641   */\n      tag_327\n      jump\t// in\n    tag_356:\n        /* \"#utility.yul\":7502:7641   */\n      swap1\n      pop\n        /* \"#utility.yul\":7229:7648   */\n      swap2\n      swap1\n      pop\n      jump\t// out\n        /* \"#utility.yul\":7654:8073   */\n    tag_230:\n        /* \"#utility.yul\":7820:7824   */\n      0x00\n        /* \"#utility.yul\":7858:7860   */\n      0x20\n        /* \"#utility.yul\":7847:7856   */\n      dup3\n        /* \"#utility.yul\":7843:7861   */\n      add\n        /* \"#utility.yul\":7835:7861   */\n      swap1\n      pop\n        /* \"#utility.yul\":7907:7916   */\n      dup2\n        /* \"#utility.yul\":7901:7905   */\n      dup2\n        /* \"#utility.yul\":7897:7917   */\n      sub\n        /* \"#utility.yul\":7893:7894   */\n      0x00\n        /* \"#utility.yul\":7882:7891   */\n      dup4\n        /* \"#utility.yul\":7878:7895   */\n      add\n        /* \"#utility.yul\":7871:7918   */\n      mstore\n        /* \"#utility.yul\":7935:8066   */\n      tag_358\n        /* \"#utility.yul\":8061:8065   */\n      dup2\n        /* \"#utility.yul\":7935:8066   */\n      tag_332\n      jump\t// in\n    tag_358:\n        /* \"#utility.yul\":7927:8066   */\n      swap1\n      pop\n        /* \"#utility.yul\":7654:8073   */\n      swap2\n      swap1\n      pop\n      jump\t// out\n        /* \"#utility.yul\":8079:8301   */\n    tag_48:\n        /* \"#utility.yul\":8172:8176   */\n      0x00\n        /* \"#utility.yul\":8210:8212   */\n      0x20\n        /* \"#utility.yul\":8199:8208   */\n      dup3\n        /* \"#utility.yul\":8195:8213   */\n      add\n        /* \"#utility.yul\":8187:8213   */\n      swap1\n      pop\n        /* \"#utility.yul\":8223:8294   */\n      tag_360\n        /* \"#utility.yul\":8291:8292   */\n      0x00\n        /* \"#utility.yul\":8280:8289   */\n      dup4\n        /* \"#utility.yul\":8276:8293   */\n      add\n        /* \"#utility.yul\":8267:8273   */\n      dup5\n        /* \"#utility.yul\":8223:8294   */\n      tag_340\n      jump\t// in\n    tag_360:\n        /* \"#utility.yul\":8079:8301   */\n      swap3\n      swap2\n      pop\n      pop\n      jump\t// out\n        /* \"#utility.yul\":8307:8639   */\n    tag_186:\n        /* \"#utility.yul\":8428:8432   */\n      0x00\n        /* \"#utility.yul\":8466:8468   */\n      0x40\n        /* \"#utility.yul\":8455:8464   */\n      dup3\n        /* \"#utility.yul\":8451:8469   */\n      add\n        /* \"#utility.yul\":8443:8469   */\n      swap1\n      pop\n        /* \"#utility.yul\":8479:8550   */\n      tag_362\n        /* \"#utility.yul\":8547:8548   */\n      0x00\n        /* \"#utility.yul\":8536:8545   */\n      dup4\n        /* \"#utility.yul\":8532:8549   */\n      add\n        /* \"#utility.yul\":8523:8529   */\n      dup6\n        /* \"#utility.yul\":8479:8550   */\n      tag_340\n      jump\t// in\n    tag_362:\n        /* \"#utility.yul\":8560:8632   */\n      tag_363\n        /* \"#utility.yul\":8628:8630   */\n      0x20\n        /* \"#utility.yul\":8617:8626   */\n      dup4\n        /* \"#utility.yul\":8613:8631   */\n      add\n        /* \"#utility.yul\":8604:8610   */\n      dup5\n        /* \"#utility.yul\":8560:8632   */\n      tag_340\n      jump\t// in\n    tag_363:\n        /* \"#utility.yul\":8307:8639   */\n      swap4\n      swap3\n      pop\n      pop\n      pop\n      jump\t// out\n        /* \"#utility.yul\":8726:8824   */\n    tag_306:\n        /* \"#utility.yul\":8791:8795   */\n      0x00\n        /* \"#utility.yul\":8814:8817   */\n      dup2\n        /* \"#utility.yul\":8806:8817   */\n      swap1\n      pop\n        /* \"#utility.yul\":8726:8824   */\n      swap2\n      swap1\n      pop\n      jump\t// out\n        /* \"#utility.yul\":8830:8934   */\n    tag_302:\n        /* \"#utility.yul\":8895:8901   */\n      0x00\n        /* \"#utility.yul\":8923:8927   */\n      0x04\n        /* \"#utility.yul\":8913:8927   */\n      swap1\n      pop\n        /* \"#utility.yul\":8830:8934   */\n      swap2\n      swap1\n      pop\n      jump\t// out\n        /* \"#utility.yul\":8940:9051   */\n    tag_312:\n        /* \"#utility.yul\":9008:9012   */\n      0x00\n        /* \"#utility.yul\":9040:9044   */\n      0x20\n        /* \"#utility.yul\":9035:9038   */\n      dup3\n        /* \"#utility.yul\":9031:9045   */\n      add\n        /* \"#utility.yul\":9023:9045   */\n      swap1\n      pop\n        /* \"#utility.yul\":8940:9051   */\n      swap2\n      swap1\n      pop\n      jump\t// out\n        /* \"#utility.yul\":9057:9200   */\n    tag_304:\n        /* \"#utility.yul\":9154:9165   */\n      0x00\n        /* \"#utility.yul\":9191:9194   */\n      dup2\n        /* \"#utility.yul\":9176:9194   */\n      swap1\n      pop\n        /* \"#utility.yul\":9057:9200   */\n      swap3\n      swap2\n      pop\n      pop\n      jump\t// out\n        /* \"#utility.yul\":9206:9375   */\n    tag_324:\n        /* \"#utility.yul\":9290:9301   */\n      0x00\n        /* \"#utility.yul\":9324:9330   */\n      dup3\n        /* \"#utility.yul\":9319:9322   */\n      dup3\n        /* \"#utility.yul\":9312:9331   */\n      mstore\n        /* \"#utility.yul\":9364:9368   */\n      0x20\n        /* \"#utility.yul\":9359:9362   */\n      dup3\n        /* \"#utility.yul\":9355:9369   */\n      add\n        /* \"#utility.yul\":9340:9369   */\n      swap1\n      pop\n        /* \"#utility.yul\":9206:9375   */\n      swap3\n      swap2\n      pop\n      pop\n      jump\t// out\n        /* \"#utility.yul\":9381:9686   */\n    tag_177:\n        /* \"#utility.yul\":9421:9424   */\n      0x00\n        /* \"#utility.yul\":9440:9460   */\n      tag_372\n        /* \"#utility.yul\":9458:9459   */\n      dup3\n        /* \"#utility.yul\":9440:9460   */\n      tag_339\n      jump\t// in\n    tag_372:\n        /* \"#utility.yul\":9435:9460   */\n      swap2\n      pop\n        /* \"#utility.yul\":9474:9494   */\n      tag_373\n        /* \"#utility.yul\":9492:9493   */\n      dup4\n        /* \"#utility.yul\":9474:9494   */\n      tag_339\n      jump\t// in\n    tag_373:\n        /* \"#utility.yul\":9469:9494   */\n      swap3\n      pop\n        /* \"#utility.yul\":9628:9629   */\n      dup3\n        /* \"#utility.yul\":9560:9626   */\n      0xffffffffffffffffffffffffffffffffffffffffffffffffffffffffffffffff\n        /* \"#utility.yul\":9556:9630   */\n      sub\n        /* \"#utility.yul\":9553:9554   */\n      dup3\n        /* \"#utility.yul\":9550:9631   */\n      gt\n        /* \"#utility.yul\":9547:9654   */\n      iszero\n      tag_374\n      jumpi\n        /* \"#utility.yul\":9634:9652   */\n      tag_375\n      tag_376\n      jump\t// in\n    tag_375:\n        /* \"#utility.yul\":9547:9654   */\n    tag_374:\n        /* \"#utility.yul\":9678:9679   */\n      dup3\n        /* \"#utility.yul\":9675:9676   */\n      dup3\n        /* \"#utility.yul\":9671:9680   */\n      add\n        /* \"#utility.yul\":9664:9680   */\n      swap1\n      pop\n        /* \"#utility.yul\":9381:9686   */\n      swap3\n      swap2\n      pop\n      pop\n      jump\t// out\n        /* \"#utility.yul\":9692:10040   */\n    tag_217:\n        /* \"#utility.yul\":9732:9739   */\n      0x00\n        /* \"#utility.yul\":9755:9775   */\n      tag_378\n        /* \"#utility.yul\":9773:9774   */\n      dup3\n        /* \"#utility.yul\":9755:9775   */\n      tag_339\n      jump\t// in\n    tag_378:\n        /* \"#utility.yul\":9750:9775   */\n      swap2\n      pop\n        /* \"#utility.yul\":9789:9809   */\n      tag_379\n        /* \"#utility.yul\":9807:9808   */\n      dup4\n        /* \"#utility.yul\":9789:9809   */\n      tag_339\n      jump\t// in\n    tag_379:\n        /* \"#utility.yul\":9784:9809   */\n      swap3\n      pop\n        /* \"#utility.yul\":9977:9978   */\n      dup2\n        /* \"#utility.yul\":9909:9975   */\n      0xffffffffffffffffffffffffffffffffffffffffffffffffffffffffffffffff\n        /* \"#utility.yul\":9905:9979   */\n      div\n        /* \"#utility.yul\":9902:9903   */\n      dup4\n        /* \"#utility.yul\":9899:9980   */\n      gt\n        /* \"#utility.yul\":9894:9895   */\n      dup3\n        /* \"#utility.yul\":9887:9896   */\n      iszero\n        /* \"#utility.yul\":9880:9897   */\n      iszero\n        /* \"#utility.yul\":9876:9981   */\n      and\n        /* \"#utility.yul\":9873:10004   */\n      iszero\n      tag_380\n      jumpi\n        /* \"#utility.yul\":9984:10002   */\n      tag_381\n      tag_376\n      jump\t// in\n    tag_381:\n        /* \"#utility.yul\":9873:10004   */\n    tag_380:\n        /* \"#utility.yul\":10032:10033   */\n      dup3\n        /* \"#utility.yul\":10029:10030   */\n      dup3\n        /* \"#utility.yul\":10025:10034   */\n      mul\n        /* \"#utility.yul\":10014:10034   */\n      swap1\n      pop\n        /* \"#utility.yul\":9692:10040   */\n      swap3\n      swap2\n      pop\n      pop\n      jump\t// out\n        /* \"#utility.yul\":10046:10237   */\n    tag_226:\n        /* \"#utility.yul\":10086:10090   */\n      0x00\n        /* \"#utility.yul\":10106:10126   */\n      tag_383\n        /* \"#utility.yul\":10124:10125   */\n      dup3\n        /* \"#utility.yul\":10106:10126   */\n      tag_339\n      jump\t// in\n    tag_383:\n        /* \"#utility.yul\":10101:10126   */\n      swap2\n      pop\n        /* \"#utility.yul\":10140:10160   */\n      tag_384\n        /* \"#utility.yul\":10158:10159   */\n      dup4\n        /* \"#utility.yul\":10140:10160   */\n      tag_339\n      jump\t// in\n    tag_384:\n        /* \"#utility.yul\":10135:10160   */\n      swap3\n      pop\n        /* \"#utility.yul\":10179:10180   */\n      dup3\n        /* \"#utility.yul\":10176:10177   */\n      dup3\n        /* \"#utility.yul\":10173:10181   */\n      lt\n        /* \"#utility.yul\":10170:10204   */\n      iszero\n      tag_385\n      jumpi\n        /* \"#utility.yul\":10184:10202   */\n      tag_386\n      tag_376\n      jump\t// in\n    tag_386:\n        /* \"#utility.yul\":10170:10204   */\n    tag_385:\n        /* \"#utility.yul\":10229:10230   */\n      dup3\n        /* \"#utility.yul\":10226:10227   */\n      dup3\n        /* \"#utility.yul\":10222:10231   */\n      sub\n        /* \"#utility.yul\":10214:10231   */\n      swap1\n      pop\n        /* \"#utility.yul\":10046:10237   */\n      swap3\n      swap2\n      pop\n      pop\n      jump\t// out\n        /* \"#utility.yul\":10243:10339   */\n    tag_298:\n        /* \"#utility.yul\":10280:10287   */\n      0x00\n        /* \"#utility.yul\":10309:10333   */\n      tag_388\n        /* \"#utility.yul\":10327:10332   */\n      dup3\n        /* \"#utility.yul\":10309:10333   */\n      tag_389\n      jump\t// in\n    tag_388:\n        /* \"#utility.yul\":10298:10333   */\n      swap1\n      pop\n        /* \"#utility.yul\":10243:10339   */\n      swap2\n      swap1\n      pop\n      jump\t// out\n        /* \"#utility.yul\":10345:10449   */\n    tag_294:\n        /* \"#utility.yul\":10390:10397   */\n      0x00\n        /* \"#utility.yul\":10419:10443   */\n      tag_391\n        /* \"#utility.yul\":10437:10442   */\n      dup3\n        /* \"#utility.yul\":10419:10443   */\n      tag_389\n      jump\t// in\n    tag_391:\n        /* \"#utility.yul\":10408:10443   */\n      swap1\n      pop\n        /* \"#utility.yul\":10345:10449   */\n      swap2\n      swap1\n      pop\n      jump\t// out\n        /* \"#utility.yul\":10455:10545   */\n    tag_316:\n        /* \"#utility.yul\":10489:10496   */\n      0x00\n        /* \"#utility.yul\":10532:10537   */\n      dup2\n        /* \"#utility.yul\":10525:10538   */\n      iszero\n        /* \"#utility.yul\":10518:10539   */\n      iszero\n        /* \"#utility.yul\":10507:10539   */\n      swap1\n      pop\n        /* \"#utility.yul\":10455:10545   */\n      swap2\n      swap1\n      pop\n      jump\t// out\n        /* \"#utility.yul\":10551:10678   */\n    tag_393:\n        /* \"#utility.yul\":10596:10603   */\n      0x00\n        /* \"#utility.yul\":10625:10630   */\n      dup2\n        /* \"#utility.yul\":10614:10630   */\n      swap1\n      pop\n        /* \"#utility.yul\":10631:10672   */\n      tag_395\n        /* \"#utility.yul\":10666:10671   */\n      dup3\n        /* \"#utility.yul\":10631:10672   */\n      tag_396\n      jump\t// in\n    tag_395:\n        /* \"#utility.yul\":10551:10678   */\n      swap2\n      swap1\n      pop\n      jump\t// out\n        /* \"#utility.yul\":10684:10810   */\n    tag_389:\n        /* \"#utility.yul\":10721:10728   */\n      0x00\n        /* \"#utility.yul\":10761:10803   */\n      0xffffffffffffffffffffffffffffffffffffffff\n        /* \"#utility.yul\":10754:10759   */\n      dup3\n        /* \"#utility.yul\":10750:10804   */\n      and\n        /* \"#utility.yul\":10739:10804   */\n      swap1\n      pop\n        /* \"#utility.yul\":10684:10810   */\n      swap2\n      swap1\n      pop\n      jump\t// out\n        /* \"#utility.yul\":10816:10893   */\n    tag_339:\n        /* \"#utility.yul\":10853:10860   */\n      0x00\n        /* \"#utility.yul\":10882:10887   */\n      dup2\n        /* \"#utility.yul\":10871:10887   */\n      swap1\n      pop\n        /* \"#utility.yul\":10816:10893   */\n      swap2\n      swap1\n      pop\n      jump\t// out\n        /* \"#utility.yul\":10899:11026   */\n    tag_320:\n        /* \"#utility.yul\":10955:10964   */\n      0x00\n        /* \"#utility.yul\":10988:11020   */\n      tag_400\n        /* \"#utility.yul\":11014:11019   */\n      dup3\n        /* \"#utility.yul\":10988:11020   */\n      tag_393\n      jump\t// in\n    tag_400:\n        /* \"#utility.yul\":10975:11020   */\n      swap1\n      pop\n        /* \"#utility.yul\":10899:11026   */\n      swap2\n      swap1\n      pop\n      jump\t// out\n        /* \"#utility.yul\":11032:11265   */\n    tag_179:\n        /* \"#utility.yul\":11071:11074   */\n      0x00\n        /* \"#utility.yul\":11094:11118   */\n      tag_402\n        /* \"#utility.yul\":11112:11117   */\n      dup3\n        /* \"#utility.yul\":11094:11118   */\n      tag_339\n      jump\t// in\n    tag_402:\n        /* \"#utility.yul\":11085:11118   */\n      swap2\n      pop\n        /* \"#utility.yul\":11140:11206   */\n      0xffffffffffffffffffffffffffffffffffffffffffffffffffffffffffffffff\n        /* \"#utility.yul\":11133:11138   */\n      dup3\n        /* \"#utility.yul\":11130:11207   */\n      eq\n        /* \"#utility.yul\":11127:11230   */\n      iszero\n      tag_403\n      jumpi\n        /* \"#utility.yul\":11210:11228   */\n      tag_404\n      tag_376\n      jump\t// in\n    tag_404:\n        /* \"#utility.yul\":11127:11230   */\n    tag_403:\n        /* \"#utility.yul\":11257:11258   */\n      0x01\n        /* \"#utility.yul\":11250:11255   */\n      dup3\n        /* \"#utility.yul\":11246:11259   */\n      add\n        /* \"#utility.yul\":11239:11259   */\n      swap1\n      pop\n        /* \"#utility.yul\":11032:11265   */\n      swap2\n      swap1\n      pop\n      jump\t// out\n        /* \"#utility.yul\":11271:11447   */\n    tag_182:\n        /* \"#utility.yul\":11303:11304   */\n      0x00\n        /* \"#utility.yul\":11320:11340   */\n      tag_406\n        /* \"#utility.yul\":11338:11339   */\n      dup3\n        /* \"#utility.yul\":11320:11340   */\n      tag_339\n      jump\t// in\n    tag_406:\n        /* \"#utility.yul\":11315:11340   */\n      swap2\n      pop\n        /* \"#utility.yul\":11354:11374   */\n      tag_407\n        /* \"#utility.yul\":11372:11373   */\n      dup4\n        /* \"#utility.yul\":11354:11374   */\n      tag_339\n      jump\t// in\n    tag_407:\n        /* \"#utility.yul\":11349:11374   */\n      swap3\n      pop\n        /* \"#utility.yul\":11393:11394   */\n      dup3\n        /* \"#utility.yul\":11383:11418   */\n      tag_408\n      jumpi\n        /* \"#utility.yul\":11398:11416   */\n      tag_409\n      tag_410\n      jump\t// in\n    tag_409:\n        /* \"#utility.yul\":11383:11418   */\n    tag_408:\n        /* \"#utility.yul\":11439:11440   */\n      dup3\n        /* \"#utility.yul\":11436:11437   */\n      dup3\n        /* \"#utility.yul\":11432:11441   */\n      mod\n        /* \"#utility.yul\":11427:11441   */\n      swap1\n      pop\n        /* \"#utility.yul\":11271:11447   */\n      swap3\n      swap2\n      pop\n      pop\n      jump\t// out\n        /* \"#utility.yul\":11453:11633   */\n    tag_376:\n        /* \"#utility.yul\":11501:11578   */\n      0x4e487b7100000000000000000000000000000000000000000000000000000000\n        /* \"#utility.yul\":11498:11499   */\n      0x00\n        /* \"#utility.yul\":11491:11579   */\n      mstore\n        /* \"#utility.yul\":11598:11602   */\n      0x11\n        /* \"#utility.yul\":11595:11596   */\n      0x04\n        /* \"#utility.yul\":11588:11603   */\n      mstore\n        /* \"#utility.yul\":11622:11626   */\n      0x24\n        /* \"#utility.yul\":11619:11620   */\n      0x00\n        /* \"#utility.yul\":11612:11627   */\n      revert\n        /* \"#utility.yul\":11639:11819   */\n    tag_410:\n        /* \"#utility.yul\":11687:11764   */\n      0x4e487b7100000000000000000000000000000000000000000000000000000000\n        /* \"#utility.yul\":11684:11685   */\n      0x00\n        /* \"#utility.yul\":11677:11765   */\n      mstore\n        /* \"#utility.yul\":11784:11788   */\n      0x12\n        /* \"#utility.yul\":11781:11782   */\n      0x04\n        /* \"#utility.yul\":11774:11789   */\n      mstore\n        /* \"#utility.yul\":11808:11812   */\n      0x24\n        /* \"#utility.yul\":11805:11806   */\n      0x00\n        /* \"#utility.yul\":11798:11813   */\n      revert\n        /* \"#utility.yul\":11825:12005   */\n    tag_192:\n        /* \"#utility.yul\":11873:11950   */\n      0x4e487b7100000000000000000000000000000000000000000000000000000000\n        /* \"#utility.yul\":11870:11871   */\n      0x00\n        /* \"#utility.yul\":11863:11951   */\n      mstore\n        /* \"#utility.yul\":11970:11974   */\n      0x21\n        /* \"#utility.yul\":11967:11968   */\n      0x04\n        /* \"#utility.yul\":11960:11975   */\n      mstore\n        /* \"#utility.yul\":11994:11998   */\n      0x24\n        /* \"#utility.yul\":11991:11992   */\n      0x00\n        /* \"#utility.yul\":11984:11999   */\n      revert\n        /* \"#utility.yul\":12011:12191   */\n    tag_213:\n        /* \"#utility.yul\":12059:12136   */\n      0x4e487b7100000000000000000000000000000000000000000000000000000000\n        /* \"#utility.yul\":12056:12057   */\n      0x00\n        /* \"#utility.yul\":12049:12137   */\n      mstore\n        /* \"#utility.yul\":12156:12160   */\n      0x32\n        /* \"#utility.yul\":12153:12154   */\n      0x04\n        /* \"#utility.yul\":12146:12161   */\n      mstore\n        /* \"#utility.yul\":12180:12184   */\n      0x24\n        /* \"#utility.yul\":12177:12178   */\n      0x00\n        /* \"#utility.yul\":12170:12185   */\n      revert\n        /* \"#utility.yul\":12197:12314   */\n    tag_258:\n        /* \"#utility.yul\":12306:12307   */\n      0x00\n        /* \"#utility.yul\":12303:12304   */\n      dup1\n        /* \"#utility.yul\":12296:12308   */\n      revert\n        /* \"#utility.yul\":12320:12437   */\n    tag_255:\n        /* \"#utility.yul\":12429:12430   */\n      0x00\n        /* \"#utility.yul\":12426:12427   */\n      dup1\n        /* \"#utility.yul\":12419:12431   */\n      revert\n        /* \"#utility.yul\":12443:12560   */\n    tag_261:\n        /* \"#utility.yul\":12552:12553   */\n      0x00\n        /* \"#utility.yul\":12549:12550   */\n      dup1\n        /* \"#utility.yul\":12542:12554   */\n      revert\n        /* \"#utility.yul\":12566:12683   */\n    tag_280:\n        /* \"#utility.yul\":12675:12676   */\n      0x00\n        /* \"#utility.yul\":12672:12673   */\n      dup1\n        /* \"#utility.yul\":12665:12677   */\n      revert\n        /* \"#utility.yul\":12689:12806   */\n    tag_269:\n        /* \"#utility.yul\":12798:12799   */\n      0x00\n        /* \"#utility.yul\":12795:12796   */\n      dup1\n        /* \"#utility.yul\":12788:12800   */\n      revert\n        /* \"#utility.yul\":12812:12972   */\n    tag_326:\n        /* \"#utility.yul\":12952:12964   */\n      0x48656c6c6f2045564d2100000000000000000000000000000000000000000000\n        /* \"#utility.yul\":12948:12949   */\n      0x00\n        /* \"#utility.yul\":12940:12946   */\n      dup3\n        /* \"#utility.yul\":12936:12950   */\n      add\n        /* \"#utility.yul\":12929:12965   */\n      mstore\n        /* \"#utility.yul\":12812:12972   */\n      pop\n      jump\t// out\n        /* \"#utility.yul\":12978:13140   */\n    tag_331:\n        /* \"#utility.yul\":13118:13132   */\n      0x48656c6c6f20576f726c64210000000000000000000000000000000000000000\n        /* \"#utility.yul\":13114:13115   */\n      0x00\n        /* \"#utility.yul\":13106:13112   */\n      dup3\n        /* \"#utility.yul\":13102:13116   */\n      add\n        /* \"#utility.yul\":13095:13133   */\n      mstore\n        /* \"#utility.yul\":12978:13140   */\n      pop\n      jump\t// out\n        /* \"#utility.yul\":13146:13325   */\n    tag_336:\n        /* \"#utility.yul\":13286:13317   */\n      0x496e707574206d7573742062652067726561746572207468616e203136000000\n        /* \"#utility.yul\":13282:13283   */\n      0x00\n        /* \"#utility.yul\":13274:13280   */\n      dup3\n        /* \"#utility.yul\":13270:13284   */\n      add\n        /* \"#utility.yul\":13263:13318   */\n      mstore\n        /* \"#utility.yul\":13146:13325   */\n      pop\n      jump\t// out\n        /* \"#utility.yul\":13331:13444   */\n    tag_396:\n        /* \"#utility.yul\":13412:13413   */\n      0x04\n        /* \"#utility.yul\":13405:13410   */\n      dup2\n        /* \"#utility.yul\":13402:13414   */\n      lt\n        /* \"#utility.yul\":13392:13438   */\n      tag_424\n      jumpi\n        /* \"#utility.yul\":13418:13436   */\n      tag_425\n      tag_192\n      jump\t// in\n    tag_425:\n        /* \"#utility.yul\":13392:13438   */\n    tag_424:\n        /* \"#utility.yul\":13331:13444   */\n      pop\n      jump\t// out\n        /* \"#utility.yul\":13450:13572   */\n    tag_246:\n        /* \"#utility.yul\":13523:13547   */\n      tag_427\n        /* \"#utility.yul\":13541:13546   */\n      dup2\n        /* \"#utility.yul\":13523:13547   */\n      tag_298\n      jump\t// in\n    tag_427:\n        /* \"#utility.yul\":13516:13521   */\n      dup2\n        /* \"#utility.yul\":13513:13548   */\n      eq\n        /* \"#utility.yul\":13503:13566   */\n      tag_428\n      jumpi\n        /* \"#utility.yul\":13562:13563   */\n      0x00\n        /* \"#utility.yul\":13559:13560   */\n      dup1\n        /* \"#utility.yul\":13552:13564   */\n      revert\n        /* \"#utility.yul\":13503:13566   */\n    tag_428:\n        /* \"#utility.yul\":13450:13572   */\n      pop\n      jump\t// out\n        /* \"#utility.yul\":13578:13685   */\n    tag_250:\n        /* \"#utility.yul\":13659:13660   */\n      0x04\n        /* \"#utility.yul\":13652:13657   */\n      dup2\n        /* \"#utility.yul\":13649:13661   */\n      lt\n        /* \"#utility.yul\":13639:13679   */\n      tag_430\n      jumpi\n        /* \"#utility.yul\":13675:13676   */\n      0x00\n        /* \"#utility.yul\":13672:13673   */\n      dup1\n        /* \"#utility.yul\":13665:13677   */\n      revert\n        /* \"#utility.yul\":13639:13679   */\n    tag_430:\n        /* \"#utility.yul\":13578:13685   */\n      pop\n      jump\t// out\n        /* \"#utility.yul\":13691:13813   */\n    tag_265:\n        /* \"#utility.yul\":13764:13788   */\n      tag_432\n        /* \"#utility.yul\":13782:13787   */\n      dup2\n        /* \"#utility.yul\":13764:13788   */\n      tag_339\n      jump\t// in\n    tag_432:\n        /* \"#utility.yul\":13757:13762   */\n      dup2\n        /* \"#utility.yul\":13754:13789   */\n      eq\n        /* \"#utility.yul\":13744:13807   */\n      tag_433\n      jumpi\n        /* \"#utility.yul\":13803:13804   */\n      0x00\n        /* \"#utility.yul\":13800:13801   */\n      dup1\n        /* \"#utility.yul\":13793:13805   */\n      revert\n        /* \"#utility.yul\":13744:13807   */\n    tag_433:\n        /* \"#utility.yul\":13691:13813   */\n      pop\n      jump\t// out\n\n    auxdata: 0xa2646970667358221220033abda45421f1e06d0b71c751d43ab1af00917b4ae554ecaac72f6d6ddb032064736f6c63430008070033\n}\n",
				"bytecode": {
					"linkReferences": {},
					"object": "60a060405273777788889999aaaabbbbccccddddeeeeffffcccc73ffffffffffffffffffffffffffffffffffffffff1660809073ffffffffffffffffffffffffffffffffffffffff1660601b815250336001806101000a81548173ffffffffffffffffffffffffffffffffffffffff021916908373ffffffffffffffffffffffffffffffffffffffff16021790555060805160601c6113866100ac600039600061088f01526113866000f3fe6080604052600436106101d15760003560e01c80636d4ce63c116100f7578063bf15071d11610095578063f8a8fd6d11610064578063f8a8fd6d146105da578063fbfa941f146105f1578063fc38511a1461062e578063fc6167cc1461066b576101d8565b8063bf15071d1461052e578063d36dedd214610559578063e7004c8914610584578063f4e78580146105af576101d8565b806397de706f116100d157806397de706f1461049c5780639ddbebd8146104c5578063b3bcfa82146104ee578063b8bd717f14610505576101d8565b80636d4ce63c1461042f57806389f915f61461045a5780638fdb718914610485576101d8565b8063340488c61161016f5780633d1157fb1161013e5780633d1157fb146103875780634984e402146103b05780634c35a7c9146103db57806355278c5b146103f2576101d8565b8063340488c614610303578063350ca8431461031a578063371303c0146103455780633a756cec1461035c576101d8565b80632c9fcc1d116101ab5780632c9fcc1d146102475780632e1a7d4d146102725780632fa78085146102af5780633052e962146102ec576101d8565b806306661abd146101da57806312065fe01461020557806315169e9a14610230576101d8565b366101d857005b005b3480156101e657600080fd5b506101ef610696565b6040516101fc9190610f4f565b60405180910390f35b34801561021157600080fd5b5061021a61069c565b6040516102279190610f4f565b60405180910390f35b34801561023c57600080fd5b506102456106a4565b005b34801561025357600080fd5b5061025c6106df565b6040516102699190610f4f565b60405180910390f35b34801561027e57600080fd5b5061029960048036038101906102949190610d09565b6106f8565b6040516102a69190610f4f565b60405180910390f35b3480156102bb57600080fd5b506102d660048036038101906102d19190610c4f565b61074f565b6040516102e39190610f4f565b60405180910390f35b3480156102f857600080fd5b50610301610798565b005b34801561030f57600080fd5b506103186107c5565b005b34801561032657600080fd5b5061032f6107e1565b60405161033c9190610eb9565b60405180910390f35b34801561035157600080fd5b5061035a6107f4565b005b34801561036857600080fd5b5061037161080f565b60405161037e9190610e83565b60405180910390f35b34801561039357600080fd5b506103ae60048036038101906103a99190610c4f565b610833565b005b3480156103bc57600080fd5b506103c561088d565b6040516103d29190610e68565b60405180910390f35b3480156103e757600080fd5b506103f06108b1565b005b3480156103fe57600080fd5b5061041960048036038101906104149190610d09565b6108ce565b6040516104269190610f4f565b60405180910390f35b34801561043b57600080fd5b506104446108ec565b6040516104519190610f4f565b60405180910390f35b34801561046657600080fd5b5061046f6108f5565b60405161047c9190610e9e565b60405180910390f35b34801561049157600080fd5b5061049a610950565b005b3480156104a857600080fd5b506104c360048036038101906104be9190610ca9565b61096d565b005b3480156104d157600080fd5b506104ec60048036038101906104e79190610c7c565b6109d2565b005b3480156104fa57600080fd5b506105036109ff565b005b34801561051157600080fd5b5061052c60048036038101906105279190610d09565b610a1a565b005b34801561053a57600080fd5b50610543610a68565b6040516105509190610ed4565b60405180910390f35b34801561056557600080fd5b5061056e610a7b565b60405161057b9190610ed4565b60405180910390f35b34801561059057600080fd5b50610599610a92565b6040516105a69190610e68565b60405180910390f35b3480156105bb57600080fd5b506105c4610a9a565b6040516105d19190610eb9565b60405180910390f35b3480156105e657600080fd5b506105ef610ab1565b005b3480156105fd57600080fd5b5061061860048036038101906106139190610c4f565b610b4b565b6040516106259190610f4f565b60405180910390f35b34801561063a57600080fd5b5061065560048036038101906106509190610d09565b610b63565b6040516106629190610f4f565b60405180910390f35b34801561067757600080fd5b50610680610b76565b60405161068d9190610f4f565b60405180910390f35b60005481565b600047905090565b60005b60108110156106dc5760016000808282546106c29190610fd1565b9250508190555080806106d490611134565b9150506106a7565b50565b600080429050600a816106f2919061117d565b91505090565b600080479050828110156107455780836040517fcf47918100000000000000000000000000000000000000000000000000000000815260040161073c929190610f6a565b60405180910390fd5b6001915050919050565b6000600260008373ffffffffffffffffffffffffffffffffffffffff1673ffffffffffffffffffffffffffffffffffffffff168152602001908152602001600020549050919050565b6000600160166101000a81548160ff021916908360038111156107be576107bd61120c565b5b0217905550565b60018060006101000a81548160ff021916908315150217905550565b600160009054906101000a900460ff1681565b60016000808282546108069190610fd1565b92505081905550565b60018054906101000a900473ffffffffffffffffffffffffffffffffffffffff1681565b6001600260008373ffffffffffffffffffffffffffffffffffffffff1673ffffffffffffffffffffffffffffffffffffffff16815260200190815260200160002060008282546108839190610fd1565b9250508190555050565b7f000000000000000000000000000000000000000000000000000000000000000081565b6000600160006101000a81548160ff021916908315150217905550565b6000600a82106108df5760026108e2565b60015b60ff169050919050565b60008054905090565b6108fd610b7e565b610905610b7e565b60005b6004811015610948576109196106df565b82826004811061092c5761092b61123b565b5b602002018181525050808061094090611134565b915050610908565b508091505090565b600060029050806000546109649190611027565b60008190555050565b610975610ba0565b83838080601f016020809104026020016040519081016040528093929190818152602001838380828437600081840152601f19601f8201169050808301925050505050505081600001819052508181602001818152505050505050565b80600160166101000a81548160ff021916908360038111156109f7576109f661120c565b5b021790555050565b6001600080828254610a119190611081565b92505081905550565b60108111610a5d576040517f08c379a0000000000000000000000000000000000000000000000000000000008152600401610a5490610f2f565b60405180910390fd5b610a656106a4565b50565b600160169054906101000a900460ff1681565b6000600160169054906101000a900460ff16905090565b600033905090565b6000600160009054906101000a900460ff16905090565b3373ffffffffffffffffffffffffffffffffffffffff167f0738f4da267a110d810e6e89fc59e46be6de0c37b1d5cd559b267dc3688e74e0604051610af590610f0f565b60405180910390a23373ffffffffffffffffffffffffffffffffffffffff167f0738f4da267a110d810e6e89fc59e46be6de0c37b1d5cd559b267dc3688e74e0604051610b4190610eef565b60405180910390a2565b60026020528060005260406000206000915090505481565b6000816000819055506000549050919050565b600042905090565b6040518060800160405280600490602082028036833780820191505090505090565b604051806040016040528060608152602001600081525090565b600081359050610bc981611312565b92915050565b600081359050610bde81611329565b92915050565b60008083601f840112610bfa57610bf961126f565b5b8235905067ffffffffffffffff811115610c1757610c1661126a565b5b602083019150836001820283011115610c3357610c32611274565b5b9250929050565b600081359050610c4981611339565b92915050565b600060208284031215610c6557610c6461127e565b5b6000610c7384828501610bba565b91505092915050565b600060208284031215610c9257610c9161127e565b5b6000610ca084828501610bcf565b91505092915050565b600080600060408486031215610cc257610cc161127e565b5b600084013567ffffffffffffffff811115610ce057610cdf611279565b5b610cec86828701610be4565b93509350506020610cff86828701610c3a565b9150509250925092565b600060208284031215610d1f57610d1e61127e565b5b6000610d2d84828501610c3a565b91505092915050565b6000610d428383610e4a565b60208301905092915050565b610d57816110c7565b82525050565b610d66816110b5565b82525050565b610d7581610f9d565b610d7f8184610fb5565b9250610d8a82610f93565b8060005b83811015610dbb578151610da28782610d36565b9650610dad83610fa8565b925050600181019050610d8e565b505050505050565b610dcc816110d9565b82525050565b610ddb81611122565b82525050565b6000610dee600a83610fc0565b9150610df982611283565b602082019050919050565b6000610e11600c83610fc0565b9150610e1c826112ac565b602082019050919050565b6000610e34601d83610fc0565b9150610e3f826112d5565b602082019050919050565b610e5381611118565b82525050565b610e6281611118565b82525050565b6000602082019050610e7d6000830184610d5d565b92915050565b6000602082019050610e986000830184610d4e565b92915050565b6000608082019050610eb36000830184610d6c565b92915050565b6000602082019050610ece6000830184610dc3565b92915050565b6000602082019050610ee96000830184610dd2565b92915050565b60006020820190508181036000830152610f0881610de1565b9050919050565b60006020820190508181036000830152610f2881610e04565b9050919050565b60006020820190508181036000830152610f4881610e27565b9050919050565b6000602082019050610f646000830184610e59565b92915050565b6000604082019050610f7f6000830185610e59565b610f8c6020830184610e59565b9392505050565b6000819050919050565b600060049050919050565b6000602082019050919050565b600081905092915050565b600082825260208201905092915050565b6000610fdc82611118565b9150610fe783611118565b9250827fffffffffffffffffffffffffffffffffffffffffffffffffffffffffffffffff0382111561101c5761101b6111ae565b5b828201905092915050565b600061103282611118565b915061103d83611118565b9250817fffffffffffffffffffffffffffffffffffffffffffffffffffffffffffffffff0483118215151615611076576110756111ae565b5b828202905092915050565b600061108c82611118565b915061109783611118565b9250828210156110aa576110a96111ae565b5b828203905092915050565b60006110c0826110f8565b9050919050565b60006110d2826110f8565b9050919050565b60008115159050919050565b60008190506110f3826112fe565b919050565b600073ffffffffffffffffffffffffffffffffffffffff82169050919050565b6000819050919050565b600061112d826110e5565b9050919050565b600061113f82611118565b91507fffffffffffffffffffffffffffffffffffffffffffffffffffffffffffffffff821415611172576111716111ae565b5b600182019050919050565b600061118882611118565b915061119383611118565b9250826111a3576111a26111dd565b5b828206905092915050565b7f4e487b7100000000000000000000000000000000000000000000000000000000600052601160045260246000fd5b7f4e487b7100000000000000000000000000000000000000000000000000000000600052601260045260246000fd5b7f4e487b7100000000000000000000000000000000000000000000000000000000600052602160045260246000fd5b7f4e487b7100000000000000000000000000000000000000000000000000000000600052603260045260246000fd5b600080fd5b600080fd5b600080fd5b600080fd5b600080fd5b7f48656c6c6f2045564d2100000000000000000000000000000000000000000000600082015250565b7f48656c6c6f20576f726c64210000000000000000000000000000000000000000600082015250565b7f496e707574206d7573742062652067726561746572207468616e203136000000600082015250565b6004811061130f5761130e61120c565b5b50565b61131b816110b5565b811461132657600080fd5b50565b6004811061133657600080fd5b50565b61134281611118565b811461134d57600080fd5b5056fea2646970667358221220033abda45421f1e06d0b71c751d43ab1af00917b4ae554ecaac72f6d6ddb032064736f6c63430008070033",
					"opcodes": "PUSH1 0xA0 PUSH1 0x40 MSTORE PUSH20 0x777788889999AAAABBBBCCCCDDDDEEEEFFFFCCCC PUSH20 0xFFFFFFFFFFFFFFFFFFFFFFFFFFFFFFFFFFFFFFFF AND PUSH1 0x80 SWAP1 PUSH20 0xFFFFFFFFFFFFFFFFFFFFFFFFFFFFFFFFFFFFFFFF AND PUSH1 0x60 SHL DUP2 MSTORE POP CALLER PUSH1 0x1 DUP1 PUSH2 0x100 EXP DUP2 SLOAD DUP2 PUSH20 0xFFFFFFFFFFFFFFFFFFFFFFFFFFFFFFFFFFFFFFFF MUL NOT AND SWAP1 DUP4 PUSH20 0xFFFFFFFFFFFFFFFFFFFFFFFFFFFFFFFFFFFFFFFF AND MUL OR SWAP1 SSTORE POP PUSH1 0x80 MLOAD PUSH1 0x60 SHR PUSH2 0x1386 PUSH2 0xAC PUSH1 0x0 CODECOPY PUSH1 0x0 PUSH2 0x88F ADD MSTORE PUSH2 0x1386 PUSH1 0x0 RETURN INVALID PUSH1 0x80 PUSH1 0x40 MSTORE PUSH1 0x4 CALLDATASIZE LT PUSH2 0x1D1 JUMPI PUSH1 0x0 CALLDATALOAD PUSH1 0xE0 SHR DUP1 PUSH4 0x6D4CE63C GT PUSH2 0xF7 JUMPI DUP1 PUSH4 0xBF15071D GT PUSH2 0x95 JUMPI DUP1 PUSH4 0xF8A8FD6D GT PUSH2 0x64 JUMPI DUP1 PUSH4 0xF8A8FD6D EQ PUSH2 0x5DA JUMPI DUP1 PUSH4 0xFBFA941F EQ PUSH2 0x5F1 JUMPI DUP1 PUSH4 0xFC38511A EQ PUSH2 0x62E JUMPI DUP1 PUSH4 0xFC6167CC EQ PUSH2 0x66B JUMPI PUSH2 0x1D8 JUMP JUMPDEST DUP1 PUSH4 0xBF15071D EQ PUSH2 0x52E JUMPI DUP1 PUSH4 0xD36DEDD2 EQ PUSH2 0x559 JUMPI DUP1 PUSH4 0xE7004C89 EQ PUSH2 0x584 JUMPI DUP1 PUSH4 0xF4E78580 EQ PUSH2 0x5AF JUMPI PUSH2 0x1D8 JUMP JUMPDEST DUP1 PUSH4 0x97DE706F GT PUSH2 0xD1 JUMPI DUP1 PUSH4 0x97DE706F EQ PUSH2 0x49C JUMPI DUP1 PUSH4 0x9DDBEBD8 EQ PUSH2 0x4C5 JUMPI DUP1 PUSH4 0xB3BCFA82 EQ PUSH2 0x4EE JUMPI DUP1 PUSH4 0xB8BD717F EQ PUSH2 0x505 JUMPI PUSH2 0x1D8 JUMP JUMPDEST DUP1 PUSH4 0x6D4CE63C EQ PUSH2 0x42F JUMPI DUP1 PUSH4 0x89F915F6 EQ PUSH2 0x45A JUMPI DUP1 PUSH4 0x8FDB7189 EQ PUSH2 0x485 JUMPI PUSH2 0x1D8 JUMP JUMPDEST DUP1 PUSH4 0x340488C6 GT PUSH2 0x16F JUMPI DUP1 PUSH4 0x3D1157FB GT PUSH2 0x13E JUMPI DUP1 PUSH4 0x3D1157FB EQ PUSH2 0x387 JUMPI DUP1 PUSH4 0x4984E402 EQ PUSH2 0x3B0 JUMPI DUP1 PUSH4 0x4C35A7C9 EQ PUSH2 0x3DB JUMPI DUP1 PUSH4 0x55278C5B EQ PUSH2 0x3F2 JUMPI PUSH2 0x1D8 JUMP JUMPDEST DUP1 PUSH4 0x340488C6 EQ PUSH2 0x303 JUMPI DUP1 PUSH4 0x350CA843 EQ PUSH2 0x31A JUMPI DUP1 PUSH4 0x371303C0 EQ PUSH2 0x345 JUMPI DUP1 PUSH4 0x3A756CEC EQ PUSH2 0x35C JUMPI PUSH2 0x1D8 JUMP JUMPDEST DUP1 PUSH4 0x2C9FCC1D GT PUSH2 0x1AB JUMPI DUP1 PUSH4 0x2C9FCC1D EQ PUSH2 0x247 JUMPI DUP1 PUSH4 0x2E1A7D4D EQ PUSH2 0x272 JUMPI DUP1 PUSH4 0x2FA78085 EQ PUSH2 0x2AF JUMPI DUP1 PUSH4 0x3052E962 EQ PUSH2 0x2EC JUMPI PUSH2 0x1D8 JUMP JUMPDEST DUP1 PUSH4 0x6661ABD EQ PUSH2 0x1DA JUMPI DUP1 PUSH4 0x12065FE0 EQ PUSH2 0x205 JUMPI DUP1 PUSH4 0x15169E9A EQ PUSH2 0x230 JUMPI PUSH2 0x1D8 JUMP JUMPDEST CALLDATASIZE PUSH2 0x1D8 JUMPI STOP JUMPDEST STOP JUMPDEST CALLVALUE DUP1 ISZERO PUSH2 0x1E6 JUMPI PUSH1 0x0 DUP1 REVERT JUMPDEST POP PUSH2 0x1EF PUSH2 0x696 JUMP JUMPDEST PUSH1 0x40 MLOAD PUSH2 0x1FC SWAP2 SWAP1 PUSH2 0xF4F JUMP JUMPDEST PUSH1 0x40 MLOAD DUP1 SWAP2 SUB SWAP1 RETURN JUMPDEST CALLVALUE DUP1 ISZERO PUSH2 0x211 JUMPI PUSH1 0x0 DUP1 REVERT JUMPDEST POP PUSH2 0x21A PUSH2 0x69C JUMP JUMPDEST PUSH1 0x40 MLOAD PUSH2 0x227 SWAP2 SWAP1 PUSH2 0xF4F JUMP JUMPDEST PUSH1 0x40 MLOAD DUP1 SWAP2 SUB SWAP1 RETURN JUMPDEST CALLVALUE DUP1 ISZERO PUSH2 0x23C JUMPI PUSH1 0x0 DUP1 REVERT JUMPDEST POP PUSH2 0x245 PUSH2 0x6A4 JUMP JUMPDEST STOP JUMPDEST CALLVALUE DUP1 ISZERO PUSH2 0x253 JUMPI PUSH1 0x0 DUP1 REVERT JUMPDEST POP PUSH2 0x25C PUSH2 0x6DF JUMP JUMPDEST PUSH1 0x40 MLOAD PUSH2 0x269 SWAP2 SWAP1 PUSH2 0xF4F JUMP JUMPDEST PUSH1 0x40 MLOAD DUP1 SWAP2 SUB SWAP1 RETURN JUMPDEST CALLVALUE DUP1 ISZERO PUSH2 0x27E JUMPI PUSH1 0x0 DUP1 REVERT JUMPDEST POP PUSH2 0x299 PUSH1 0x4 DUP1 CALLDATASIZE SUB DUP2 ADD SWAP1 PUSH2 0x294 SWAP2 SWAP1 PUSH2 0xD09 JUMP JUMPDEST PUSH2 0x6F8 JUMP JUMPDEST PUSH1 0x40 MLOAD PUSH2 0x2A6 SWAP2 SWAP1 PUSH2 0xF4F JUMP JUMPDEST PUSH1 0x40 MLOAD DUP1 SWAP2 SUB SWAP1 RETURN JUMPDEST CALLVALUE DUP1 ISZERO PUSH2 0x2BB JUMPI PUSH1 0x0 DUP1 REVERT JUMPDEST POP PUSH2 0x2D6 PUSH1 0x4 DUP1 CALLDATASIZE SUB DUP2 ADD SWAP1 PUSH2 0x2D1 SWAP2 SWAP1 PUSH2 0xC4F JUMP JUMPDEST PUSH2 0x74F JUMP JUMPDEST PUSH1 0x40 MLOAD PUSH2 0x2E3 SWAP2 SWAP1 PUSH2 0xF4F JUMP JUMPDEST PUSH1 0x40 MLOAD DUP1 SWAP2 SUB SWAP1 RETURN JUMPDEST CALLVALUE DUP1 ISZERO PUSH2 0x2F8 JUMPI PUSH1 0x0 DUP1 REVERT JUMPDEST POP PUSH2 0x301 PUSH2 0x798 JUMP JUMPDEST STOP JUMPDEST CALLVALUE DUP1 ISZERO PUSH2 0x30F JUMPI PUSH1 0x0 DUP1 REVERT JUMPDEST POP PUSH2 0x318 PUSH2 0x7C5 JUMP JUMPDEST STOP JUMPDEST CALLVALUE DUP1 ISZERO PUSH2 0x326 JUMPI PUSH1 0x0 DUP1 REVERT JUMPDEST POP PUSH2 0x32F PUSH2 0x7E1 JUMP JUMPDEST PUSH1 0x40 MLOAD PUSH2 0x33C SWAP2 SWAP1 PUSH2 0xEB9 JUMP JUMPDEST PUSH1 0x40 MLOAD DUP1 SWAP2 SUB SWAP1 RETURN JUMPDEST CALLVALUE DUP1 ISZERO PUSH2 0x351 JUMPI PUSH1 0x0 DUP1 REVERT JUMPDEST POP PUSH2 0x35A PUSH2 0x7F4 JUMP JUMPDEST STOP JUMPDEST CALLVALUE DUP1 ISZERO PUSH2 0x368 JUMPI PUSH1 0x0 DUP1 REVERT JUMPDEST POP PUSH2 0x371 PUSH2 0x80F JUMP JUMPDEST PUSH1 0x40 MLOAD PUSH2 0x37E SWAP2 SWAP1 PUSH2 0xE83 JUMP JUMPDEST PUSH1 0x40 MLOAD DUP1 SWAP2 SUB SWAP1 RETURN JUMPDEST CALLVALUE DUP1 ISZERO PUSH2 0x393 JUMPI PUSH1 0x0 DUP1 REVERT JUMPDEST POP PUSH2 0x3AE PUSH1 0x4 DUP1 CALLDATASIZE SUB DUP2 ADD SWAP1 PUSH2 0x3A9 SWAP2 SWAP1 PUSH2 0xC4F JUMP JUMPDEST PUSH2 0x833 JUMP JUMPDEST STOP JUMPDEST CALLVALUE DUP1 ISZERO PUSH2 0x3BC JUMPI PUSH1 0x0 DUP1 REVERT JUMPDEST POP PUSH2 0x3C5 PUSH2 0x88D JUMP JUMPDEST PUSH1 0x40 MLOAD PUSH2 0x3D2 SWAP2 SWAP1 PUSH2 0xE68 JUMP JUMPDEST PUSH1 0x40 MLOAD DUP1 SWAP2 SUB SWAP1 RETURN JUMPDEST CALLVALUE DUP1 ISZERO PUSH2 0x3E7 JUMPI PUSH1 0x0 DUP1 REVERT JUMPDEST POP PUSH2 0x3F0 PUSH2 0x8B1 JUMP JUMPDEST STOP JUMPDEST CALLVALUE DUP1 ISZERO PUSH2 0x3FE JUMPI PUSH1 0x0 DUP1 REVERT JUMPDEST POP PUSH2 0x419 PUSH1 0x4 DUP1 CALLDATASIZE SUB DUP2 ADD SWAP1 PUSH2 0x414 SWAP2 SWAP1 PUSH2 0xD09 JUMP JUMPDEST PUSH2 0x8CE JUMP JUMPDEST PUSH1 0x40 MLOAD PUSH2 0x426 SWAP2 SWAP1 PUSH2 0xF4F JUMP JUMPDEST PUSH1 0x40 MLOAD DUP1 SWAP2 SUB SWAP1 RETURN JUMPDEST CALLVALUE DUP1 ISZERO PUSH2 0x43B JUMPI PUSH1 0x0 DUP1 REVERT JUMPDEST POP PUSH2 0x444 PUSH2 0x8EC JUMP JUMPDEST PUSH1 0x40 MLOAD PUSH2 0x451 SWAP2 SWAP1 PUSH2 0xF4F JUMP JUMPDEST PUSH1 0x40 MLOAD DUP1 SWAP2 SUB SWAP1 RETURN JUMPDEST CALLVALUE DUP1 ISZERO PUSH2 0x466 JUMPI PUSH1 0x0 DUP1 REVERT JUMPDEST POP PUSH2 0x46F PUSH2 0x8F5 JUMP JUMPDEST PUSH1 0x40 MLOAD PUSH2 0x47C SWAP2 SWAP1 PUSH2 0xE9E JUMP JUMPDEST PUSH1 0x40 MLOAD DUP1 SWAP2 SUB SWAP1 RETURN JUMPDEST CALLVALUE DUP1 ISZERO PUSH2 0x491 JUMPI PUSH1 0x0 DUP1 REVERT JUMPDEST POP PUSH2 0x49A PUSH2 0x950 JUMP JUMPDEST STOP JUMPDEST CALLVALUE DUP1 ISZERO PUSH2 0x4A8 JUMPI PUSH1 0x0 DUP1 REVERT JUMPDEST POP PUSH2 0x4C3 PUSH1 0x4 DUP1 CALLDATASIZE SUB DUP2 ADD SWAP1 PUSH2 0x4BE SWAP2 SWAP1 PUSH2 0xCA9 JUMP JUMPDEST PUSH2 0x96D JUMP JUMPDEST STOP JUMPDEST CALLVALUE DUP1 ISZERO PUSH2 0x4D1 JUMPI PUSH1 0x0 DUP1 REVERT JUMPDEST POP PUSH2 0x4EC PUSH1 0x4 DUP1 CALLDATASIZE SUB DUP2 ADD SWAP1 PUSH2 0x4E7 SWAP2 SWAP1 PUSH2 0xC7C JUMP JUMPDEST PUSH2 0x9D2 JUMP JUMPDEST STOP JUMPDEST CALLVALUE DUP1 ISZERO PUSH2 0x4FA JUMPI PUSH1 0x0 DUP1 REVERT JUMPDEST POP PUSH2 0x503 PUSH2 0x9FF JUMP JUMPDEST STOP JUMPDEST CALLVALUE DUP1 ISZERO PUSH2 0x511 JUMPI PUSH1 0x0 DUP1 REVERT JUMPDEST POP PUSH2 0x52C PUSH1 0x4 DUP1 CALLDATASIZE SUB DUP2 ADD SWAP1 PUSH2 0x527 SWAP2 SWAP1 PUSH2 0xD09 JUMP JUMPDEST PUSH2 0xA1A JUMP JUMPDEST STOP JUMPDEST CALLVALUE DUP1 ISZERO PUSH2 0x53A JUMPI PUSH1 0x0 DUP1 REVERT JUMPDEST POP PUSH2 0x543 PUSH2 0xA68 JUMP JUMPDEST PUSH1 0x40 MLOAD PUSH2 0x550 SWAP2 SWAP1 PUSH2 0xED4 JUMP JUMPDEST PUSH1 0x40 MLOAD DUP1 SWAP2 SUB SWAP1 RETURN JUMPDEST CALLVALUE DUP1 ISZERO PUSH2 0x565 JUMPI PUSH1 0x0 DUP1 REVERT JUMPDEST POP PUSH2 0x56E PUSH2 0xA7B JUMP JUMPDEST PUSH1 0x40 MLOAD PUSH2 0x57B SWAP2 SWAP1 PUSH2 0xED4 JUMP JUMPDEST PUSH1 0x40 MLOAD DUP1 SWAP2 SUB SWAP1 RETURN JUMPDEST CALLVALUE DUP1 ISZERO PUSH2 0x590 JUMPI PUSH1 0x0 DUP1 REVERT JUMPDEST POP PUSH2 0x599 PUSH2 0xA92 JUMP JUMPDEST PUSH1 0x40 MLOAD PUSH2 0x5A6 SWAP2 SWAP1 PUSH2 0xE68 JUMP JUMPDEST PUSH1 0x40 MLOAD DUP1 SWAP2 SUB SWAP1 RETURN JUMPDEST CALLVALUE DUP1 ISZERO PUSH2 0x5BB JUMPI PUSH1 0x0 DUP1 REVERT JUMPDEST POP PUSH2 0x5C4 PUSH2 0xA9A JUMP JUMPDEST PUSH1 0x40 MLOAD PUSH2 0x5D1 SWAP2 SWAP1 PUSH2 0xEB9 JUMP JUMPDEST PUSH1 0x40 MLOAD DUP1 SWAP2 SUB SWAP1 RETURN JUMPDEST CALLVALUE DUP1 ISZERO PUSH2 0x5E6 JUMPI PUSH1 0x0 DUP1 REVERT JUMPDEST POP PUSH2 0x5EF PUSH2 0xAB1 JUMP JUMPDEST STOP JUMPDEST CALLVALUE DUP1 ISZERO PUSH2 0x5FD JUMPI PUSH1 0x0 DUP1 REVERT JUMPDEST POP PUSH2 0x618 PUSH1 0x4 DUP1 CALLDATASIZE SUB DUP2 ADD SWAP1 PUSH2 0x613 SWAP2 SWAP1 PUSH2 0xC4F JUMP JUMPDEST PUSH2 0xB4B JUMP JUMPDEST PUSH1 0x40 MLOAD PUSH2 0x625 SWAP2 SWAP1 PUSH2 0xF4F JUMP JUMPDEST PUSH1 0x40 MLOAD DUP1 SWAP2 SUB SWAP1 RETURN JUMPDEST CALLVALUE DUP1 ISZERO PUSH2 0x63A JUMPI PUSH1 0x0 DUP1 REVERT JUMPDEST POP PUSH2 0x655 PUSH1 0x4 DUP1 CALLDATASIZE SUB DUP2 ADD SWAP1 PUSH2 0x650 SWAP2 SWAP1 PUSH2 0xD09 JUMP JUMPDEST PUSH2 0xB63 JUMP JUMPDEST PUSH1 0x40 MLOAD PUSH2 0x662 SWAP2 SWAP1 PUSH2 0xF4F JUMP JUMPDEST PUSH1 0x40 MLOAD DUP1 SWAP2 SUB SWAP1 RETURN JUMPDEST CALLVALUE DUP1 ISZERO PUSH2 0x677 JUMPI PUSH1 0x0 DUP1 REVERT JUMPDEST POP PUSH2 0x680 PUSH2 0xB76 JUMP JUMPDEST PUSH1 0x40 MLOAD PUSH2 0x68D SWAP2 SWAP1 PUSH2 0xF4F JUMP JUMPDEST PUSH1 0x40 MLOAD DUP1 SWAP2 SUB SWAP1 RETURN JUMPDEST PUSH1 0x0 SLOAD DUP2 JUMP JUMPDEST PUSH1 0x0 SELFBALANCE SWAP1 POP SWAP1 JUMP JUMPDEST PUSH1 0x0 JUMPDEST PUSH1 0x10 DUP2 LT ISZERO PUSH2 0x6DC JUMPI PUSH1 0x1 PUSH1 0x0 DUP1 DUP3 DUP3 SLOAD PUSH2 0x6C2 SWAP2 SWAP1 PUSH2 0xFD1 JUMP JUMPDEST SWAP3 POP POP DUP2 SWAP1 SSTORE POP DUP1 DUP1 PUSH2 0x6D4 SWAP1 PUSH2 0x1134 JUMP JUMPDEST SWAP2 POP POP PUSH2 0x6A7 JUMP JUMPDEST POP JUMP JUMPDEST PUSH1 0x0 DUP1 TIMESTAMP SWAP1 POP PUSH1 0xA DUP2 PUSH2 0x6F2 SWAP2 SWAP1 PUSH2 0x117D JUMP JUMPDEST SWAP2 POP POP SWAP1 JUMP JUMPDEST PUSH1 0x0 DUP1 SELFBALANCE SWAP1 POP DUP3 DUP2 LT ISZERO PUSH2 0x745 JUMPI DUP1 DUP4 PUSH1 0x40 MLOAD PUSH32 0xCF47918100000000000000000000000000000000000000000000000000000000 DUP2 MSTORE PUSH1 0x4 ADD PUSH2 0x73C SWAP3 SWAP2 SWAP1 PUSH2 0xF6A JUMP JUMPDEST PUSH1 0x40 MLOAD DUP1 SWAP2 SUB SWAP1 REVERT JUMPDEST PUSH1 0x1 SWAP2 POP POP SWAP2 SWAP1 POP JUMP JUMPDEST PUSH1 0x0 PUSH1 0x2 PUSH1 0x0 DUP4 PUSH20 0xFFFFFFFFFFFFFFFFFFFFFFFFFFFFFFFFFFFFFFFF AND PUSH20 0xFFFFFFFFFFFFFFFFFFFFFFFFFFFFFFFFFFFFFFFF AND DUP2 MSTORE PUSH1 0x20 ADD SWAP1 DUP2 MSTORE PUSH1 0x20 ADD PUSH1 0x0 KECCAK256 SLOAD SWAP1 POP SWAP2 SWAP1 POP JUMP JUMPDEST PUSH1 0x0 PUSH1 0x1 PUSH1 0x16 PUSH2 0x100 EXP DUP2 SLOAD DUP2 PUSH1 0xFF MUL NOT AND SWAP1 DUP4 PUSH1 0x3 DUP2 GT ISZERO PUSH2 0x7BE JUMPI PUSH2 0x7BD PUSH2 0x120C JUMP JUMPDEST JUMPDEST MUL OR SWAP1 SSTORE POP JUMP JUMPDEST PUSH1 0x1 DUP1 PUSH1 0x0 PUSH2 0x100 EXP DUP2 SLOAD DUP2 PUSH1 0xFF MUL NOT AND SWAP1 DUP4 ISZERO ISZERO MUL OR SWAP1 SSTORE POP JUMP JUMPDEST PUSH1 0x1 PUSH1 0x0 SWAP1 SLOAD SWAP1 PUSH2 0x100 EXP SWAP1 DIV PUSH1 0xFF AND DUP2 JUMP JUMPDEST PUSH1 0x1 PUSH1 0x0 DUP1 DUP3 DUP3 SLOAD PUSH2 0x806 SWAP2 SWAP1 PUSH2 0xFD1 JUMP JUMPDEST SWAP3 POP POP DUP2 SWAP1 SSTORE POP JUMP JUMPDEST PUSH1 0x1 DUP1 SLOAD SWAP1 PUSH2 0x100 EXP SWAP1 DIV PUSH20 0xFFFFFFFFFFFFFFFFFFFFFFFFFFFFFFFFFFFFFFFF AND DUP2 JUMP JUMPDEST PUSH1 0x1 PUSH1 0x2 PUSH1 0x0 DUP4 PUSH20 0xFFFFFFFFFFFFFFFFFFFFFFFFFFFFFFFFFFFFFFFF AND PUSH20 0xFFFFFFFFFFFFFFFFFFFFFFFFFFFFFFFFFFFFFFFF AND DUP2 MSTORE PUSH1 0x20 ADD SWAP1 DUP2 MSTORE PUSH1 0x20 ADD PUSH1 0x0 KECCAK256 PUSH1 0x0 DUP3 DUP3 SLOAD PUSH2 0x883 SWAP2 SWAP1 PUSH2 0xFD1 JUMP JUMPDEST SWAP3 POP POP DUP2 SWAP1 SSTORE POP POP JUMP JUMPDEST PUSH32 0x0 DUP2 JUMP JUMPDEST PUSH1 0x0 PUSH1 0x1 PUSH1 0x0 PUSH2 0x100 EXP DUP2 SLOAD DUP2 PUSH1 0xFF MUL NOT AND SWAP1 DUP4 ISZERO ISZERO MUL OR SWAP1 SSTORE POP JUMP JUMPDEST PUSH1 0x0 PUSH1 0xA DUP3 LT PUSH2 0x8DF JUMPI PUSH1 0x2 PUSH2 0x8E2 JUMP JUMPDEST PUSH1 0x1 JUMPDEST PUSH1 0xFF AND SWAP1 POP SWAP2 SWAP1 POP JUMP JUMPDEST PUSH1 0x0 DUP1 SLOAD SWAP1 POP SWAP1 JUMP JUMPDEST PUSH2 0x8FD PUSH2 0xB7E JUMP JUMPDEST PUSH2 0x905 PUSH2 0xB7E JUMP JUMPDEST PUSH1 0x0 JUMPDEST PUSH1 0x4 DUP2 LT ISZERO PUSH2 0x948 JUMPI PUSH2 0x919 PUSH2 0x6DF JUMP JUMPDEST DUP3 DUP3 PUSH1 0x4 DUP2 LT PUSH2 0x92C JUMPI PUSH2 0x92B PUSH2 0x123B JUMP JUMPDEST JUMPDEST PUSH1 0x20 MUL ADD DUP2 DUP2 MSTORE POP POP DUP1 DUP1 PUSH2 0x940 SWAP1 PUSH2 0x1134 JUMP JUMPDEST SWAP2 POP POP PUSH2 0x908 JUMP JUMPDEST POP DUP1 SWAP2 POP POP SWAP1 JUMP JUMPDEST PUSH1 0x0 PUSH1 0x2 SWAP1 POP DUP1 PUSH1 0x0 SLOAD PUSH2 0x964 SWAP2 SWAP1 PUSH2 0x1027 JUMP JUMPDEST PUSH1 0x0 DUP2 SWAP1 SSTORE POP POP JUMP JUMPDEST PUSH2 0x975 PUSH2 0xBA0 JUMP JUMPDEST DUP4 DUP4 DUP1 DUP1 PUSH1 0x1F ADD PUSH1 0x20 DUP1 SWAP2 DIV MUL PUSH1 0x20 ADD PUSH1 0x40 MLOAD SWAP1 DUP2 ADD PUSH1 0x40 MSTORE DUP1 SWAP4 SWAP3 SWAP2 SWAP1 DUP2 DUP2 MSTORE PUSH1 0x20 ADD DUP4 DUP4 DUP1 DUP3 DUP5 CALLDATACOPY PUSH1 0x0 DUP2 DUP5 ADD MSTORE PUSH1 0x1F NOT PUSH1 0x1F DUP3 ADD AND SWAP1 POP DUP1 DUP4 ADD SWAP3 POP POP POP POP POP POP POP DUP2 PUSH1 0x0 ADD DUP2 SWAP1 MSTORE POP DUP2 DUP2 PUSH1 0x20 ADD DUP2 DUP2 MSTORE POP POP POP POP POP POP JUMP JUMPDEST DUP1 PUSH1 0x1 PUSH1 0x16 PUSH2 0x100 EXP DUP2 SLOAD DUP2 PUSH1 0xFF MUL NOT AND SWAP1 DUP4 PUSH1 0x3 DUP2 GT ISZERO PUSH2 0x9F7 JUMPI PUSH2 0x9F6 PUSH2 0x120C JUMP JUMPDEST JUMPDEST MUL OR SWAP1 SSTORE POP POP JUMP JUMPDEST PUSH1 0x1 PUSH1 0x0 DUP1 DUP3 DUP3 SLOAD PUSH2 0xA11 SWAP2 SWAP1 PUSH2 0x1081 JUMP JUMPDEST SWAP3 POP POP DUP2 SWAP1 SSTORE POP JUMP JUMPDEST PUSH1 0x10 DUP2 GT PUSH2 0xA5D JUMPI PUSH1 0x40 MLOAD PUSH32 0x8C379A000000000000000000000000000000000000000000000000000000000 DUP2 MSTORE PUSH1 0x4 ADD PUSH2 0xA54 SWAP1 PUSH2 0xF2F JUMP JUMPDEST PUSH1 0x40 MLOAD DUP1 SWAP2 SUB SWAP1 REVERT JUMPDEST PUSH2 0xA65 PUSH2 0x6A4 JUMP JUMPDEST POP JUMP JUMPDEST PUSH1 0x1 PUSH1 0x16 SWAP1 SLOAD SWAP1 PUSH2 0x100 EXP SWAP1 DIV PUSH1 0xFF AND DUP2 JUMP JUMPDEST PUSH1 0x0 PUSH1 0x1 PUSH1 0x16 SWAP1 SLOAD SWAP1 PUSH2 0x100 EXP SWAP1 DIV PUSH1 0xFF AND SWAP1 POP SWAP1 JUMP JUMPDEST PUSH1 0x0 CALLER SWAP1 POP SWAP1 JUMP JUMPDEST PUSH1 0x0 PUSH1 0x1 PUSH1 0x0 SWAP1 SLOAD SWAP1 PUSH2 0x100 EXP SWAP1 DIV PUSH1 0xFF AND SWAP1 POP SWAP1 JUMP JUMPDEST CALLER PUSH20 0xFFFFFFFFFFFFFFFFFFFFFFFFFFFFFFFFFFFFFFFF AND PUSH32 0x738F4DA267A110D810E6E89FC59E46BE6DE0C37B1D5CD559B267DC3688E74E0 PUSH1 0x40 MLOAD PUSH2 0xAF5 SWAP1 PUSH2 0xF0F JUMP JUMPDEST PUSH1 0x40 MLOAD DUP1 SWAP2 SUB SWAP1 LOG2 CALLER PUSH20 0xFFFFFFFFFFFFFFFFFFFFFFFFFFFFFFFFFFFFFFFF AND PUSH32 0x738F4DA267A110D810E6E89FC59E46BE6DE0C37B1D5CD559B267DC3688E74E0 PUSH1 0x40 MLOAD PUSH2 0xB41 SWAP1 PUSH2 0xEEF JUMP JUMPDEST PUSH1 0x40 MLOAD DUP1 SWAP2 SUB SWAP1 LOG2 JUMP JUMPDEST PUSH1 0x2 PUSH1 0x20 MSTORE DUP1 PUSH1 0x0 MSTORE PUSH1 0x40 PUSH1 0x0 KECCAK256 PUSH1 0x0 SWAP2 POP SWAP1 POP SLOAD DUP2 JUMP JUMPDEST PUSH1 0x0 DUP2 PUSH1 0x0 DUP2 SWAP1 SSTORE POP PUSH1 0x0 SLOAD SWAP1 POP SWAP2 SWAP1 POP JUMP JUMPDEST PUSH1 0x0 TIMESTAMP SWAP1 POP SWAP1 JUMP JUMPDEST PUSH1 0x40 MLOAD DUP1 PUSH1 0x80 ADD PUSH1 0x40 MSTORE DUP1 PUSH1 0x4 SWAP1 PUSH1 0x20 DUP3 MUL DUP1 CALLDATASIZE DUP4 CALLDATACOPY DUP1 DUP3 ADD SWAP2 POP POP SWAP1 POP POP SWAP1 JUMP JUMPDEST PUSH1 0x40 MLOAD DUP1 PUSH1 0x40 ADD PUSH1 0x40 MSTORE DUP1 PUSH1 0x60 DUP2 MSTORE PUSH1 0x20 ADD PUSH1 0x0 DUP2 MSTORE POP SWAP1 JUMP JUMPDEST PUSH1 0x0 DUP2 CALLDATALOAD SWAP1 POP PUSH2 0xBC9 DUP2 PUSH2 0x1312 JUMP JUMPDEST SWAP3 SWAP2 POP POP JUMP JUMPDEST PUSH1 0x0 DUP2 CALLDATALOAD SWAP1 POP PUSH2 0xBDE DUP2 PUSH2 0x1329 JUMP JUMPDEST SWAP3 SWAP2 POP POP JUMP JUMPDEST PUSH1 0x0 DUP1 DUP4 PUSH1 0x1F DUP5 ADD SLT PUSH2 0xBFA JUMPI PUSH2 0xBF9 PUSH2 0x126F JUMP JUMPDEST JUMPDEST DUP3 CALLDATALOAD SWAP1 POP PUSH8 0xFFFFFFFFFFFFFFFF DUP2 GT ISZERO PUSH2 0xC17 JUMPI PUSH2 0xC16 PUSH2 0x126A JUMP JUMPDEST JUMPDEST PUSH1 0x20 DUP4 ADD SWAP2 POP DUP4 PUSH1 0x1 DUP3 MUL DUP4 ADD GT ISZERO PUSH2 0xC33 JUMPI PUSH2 0xC32 PUSH2 0x1274 JUMP JUMPDEST JUMPDEST SWAP3 POP SWAP3 SWAP1 POP JUMP JUMPDEST PUSH1 0x0 DUP2 CALLDATALOAD SWAP1 POP PUSH2 0xC49 DUP2 PUSH2 0x1339 JUMP JUMPDEST SWAP3 SWAP2 POP POP JUMP JUMPDEST PUSH1 0x0 PUSH1 0x20 DUP3 DUP5 SUB SLT ISZERO PUSH2 0xC65 JUMPI PUSH2 0xC64 PUSH2 0x127E JUMP JUMPDEST JUMPDEST PUSH1 0x0 PUSH2 0xC73 DUP5 DUP3 DUP6 ADD PUSH2 0xBBA JUMP JUMPDEST SWAP2 POP POP SWAP3 SWAP2 POP POP JUMP JUMPDEST PUSH1 0x0 PUSH1 0x20 DUP3 DUP5 SUB SLT ISZERO PUSH2 0xC92 JUMPI PUSH2 0xC91 PUSH2 0x127E JUMP JUMPDEST JUMPDEST PUSH1 0x0 PUSH2 0xCA0 DUP5 DUP3 DUP6 ADD PUSH2 0xBCF JUMP JUMPDEST SWAP2 POP POP SWAP3 SWAP2 POP POP JUMP JUMPDEST PUSH1 0x0 DUP1 PUSH1 0x0 PUSH1 0x40 DUP5 DUP7 SUB SLT ISZERO PUSH2 0xCC2 JUMPI PUSH2 0xCC1 PUSH2 0x127E JUMP JUMPDEST JUMPDEST PUSH1 0x0 DUP5 ADD CALLDATALOAD PUSH8 0xFFFFFFFFFFFFFFFF DUP2 GT ISZERO PUSH2 0xCE0 JUMPI PUSH2 0xCDF PUSH2 0x1279 JUMP JUMPDEST JUMPDEST PUSH2 0xCEC DUP7 DUP3 DUP8 ADD PUSH2 0xBE4 JUMP JUMPDEST SWAP4 POP SWAP4 POP POP PUSH1 0x20 PUSH2 0xCFF DUP7 DUP3 DUP8 ADD PUSH2 0xC3A JUMP JUMPDEST SWAP2 POP POP SWAP3 POP SWAP3 POP SWAP3 JUMP JUMPDEST PUSH1 0x0 PUSH1 0x20 DUP3 DUP5 SUB SLT ISZERO PUSH2 0xD1F JUMPI PUSH2 0xD1E PUSH2 0x127E JUMP JUMPDEST JUMPDEST PUSH1 0x0 PUSH2 0xD2D DUP5 DUP3 DUP6 ADD PUSH2 0xC3A JUMP JUMPDEST SWAP2 POP POP SWAP3 SWAP2 POP POP JUMP JUMPDEST PUSH1 0x0 PUSH2 0xD42 DUP4 DUP4 PUSH2 0xE4A JUMP JUMPDEST PUSH1 0x20 DUP4 ADD SWAP1 POP SWAP3 SWAP2 POP POP JUMP JUMPDEST PUSH2 0xD57 DUP2 PUSH2 0x10C7 JUMP JUMPDEST DUP3 MSTORE POP POP JUMP JUMPDEST PUSH2 0xD66 DUP2 PUSH2 0x10B5 JUMP JUMPDEST DUP3 MSTORE POP POP JUMP JUMPDEST PUSH2 0xD75 DUP2 PUSH2 0xF9D JUMP JUMPDEST PUSH2 0xD7F DUP2 DUP5 PUSH2 0xFB5 JUMP JUMPDEST SWAP3 POP PUSH2 0xD8A DUP3 PUSH2 0xF93 JUMP JUMPDEST DUP1 PUSH1 0x0 JUMPDEST DUP4 DUP2 LT ISZERO PUSH2 0xDBB JUMPI DUP2 MLOAD PUSH2 0xDA2 DUP8 DUP3 PUSH2 0xD36 JUMP JUMPDEST SWAP7 POP PUSH2 0xDAD DUP4 PUSH2 0xFA8 JUMP JUMPDEST SWAP3 POP POP PUSH1 0x1 DUP2 ADD SWAP1 POP PUSH2 0xD8E JUMP JUMPDEST POP POP POP POP POP POP JUMP JUMPDEST PUSH2 0xDCC DUP2 PUSH2 0x10D9 JUMP JUMPDEST DUP3 MSTORE POP POP JUMP JUMPDEST PUSH2 0xDDB DUP2 PUSH2 0x1122 JUMP JUMPDEST DUP3 MSTORE POP POP JUMP JUMPDEST PUSH1 0x0 PUSH2 0xDEE PUSH1 0xA DUP4 PUSH2 0xFC0 JUMP JUMPDEST SWAP2 POP PUSH2 0xDF9 DUP3 PUSH2 0x1283 JUMP JUMPDEST PUSH1 0x20 DUP3 ADD SWAP1 POP SWAP2 SWAP1 POP JUMP JUMPDEST PUSH1 0x0 PUSH2 0xE11 PUSH1 0xC DUP4 PUSH2 0xFC0 JUMP JUMPDEST SWAP2 POP PUSH2 0xE1C DUP3 PUSH2 0x12AC JUMP JUMPDEST PUSH1 0x20 DUP3 ADD SWAP1 POP SWAP2 SWAP1 POP JUMP JUMPDEST PUSH1 0x0 PUSH2 0xE34 PUSH1 0x1D DUP4 PUSH2 0xFC0 JUMP JUMPDEST SWAP2 POP PUSH2 0xE3F DUP3 PUSH2 0x12D5 JUMP JUMPDEST PUSH1 0x20 DUP3 ADD SWAP1 POP SWAP2 SWAP1 POP JUMP JUMPDEST PUSH2 0xE53 DUP2 PUSH2 0x1118 JUMP JUMPDEST DUP3 MSTORE POP POP JUMP JUMPDEST PUSH2 0xE62 DUP2 PUSH2 0x1118 JUMP JUMPDEST DUP3 MSTORE POP POP JUMP JUMPDEST PUSH1 0x0 PUSH1 0x20 DUP3 ADD SWAP1 POP PUSH2 0xE7D PUSH1 0x0 DUP4 ADD DUP5 PUSH2 0xD5D JUMP JUMPDEST SWAP3 SWAP2 POP POP JUMP JUMPDEST PUSH1 0x0 PUSH1 0x20 DUP3 ADD SWAP1 POP PUSH2 0xE98 PUSH1 0x0 DUP4 ADD DUP5 PUSH2 0xD4E JUMP JUMPDEST SWAP3 SWAP2 POP POP JUMP JUMPDEST PUSH1 0x0 PUSH1 0x80 DUP3 ADD SWAP1 POP PUSH2 0xEB3 PUSH1 0x0 DUP4 ADD DUP5 PUSH2 0xD6C JUMP JUMPDEST SWAP3 SWAP2 POP POP JUMP JUMPDEST PUSH1 0x0 PUSH1 0x20 DUP3 ADD SWAP1 POP PUSH2 0xECE PUSH1 0x0 DUP4 ADD DUP5 PUSH2 0xDC3 JUMP JUMPDEST SWAP3 SWAP2 POP POP JUMP JUMPDEST PUSH1 0x0 PUSH1 0x20 DUP3 ADD SWAP1 POP PUSH2 0xEE9 PUSH1 0x0 DUP4 ADD DUP5 PUSH2 0xDD2 JUMP JUMPDEST SWAP3 SWAP2 POP POP JUMP JUMPDEST PUSH1 0x0 PUSH1 0x20 DUP3 ADD SWAP1 POP DUP2 DUP2 SUB PUSH1 0x0 DUP4 ADD MSTORE PUSH2 0xF08 DUP2 PUSH2 0xDE1 JUMP JUMPDEST SWAP1 POP SWAP2 SWAP1 POP JUMP JUMPDEST PUSH1 0x0 PUSH1 0x20 DUP3 ADD SWAP1 POP DUP2 DUP2 SUB PUSH1 0x0 DUP4 ADD MSTORE PUSH2 0xF28 DUP2 PUSH2 0xE04 JUMP JUMPDEST SWAP1 POP SWAP2 SWAP1 POP JUMP JUMPDEST PUSH1 0x0 PUSH1 0x20 DUP3 ADD SWAP1 POP DUP2 DUP2 SUB PUSH1 0x0 DUP4 ADD MSTORE PUSH2 0xF48 DUP2 PUSH2 0xE27 JUMP JUMPDEST SWAP1 POP SWAP2 SWAP1 POP JUMP JUMPDEST PUSH1 0x0 PUSH1 0x20 DUP3 ADD SWAP1 POP PUSH2 0xF64 PUSH1 0x0 DUP4 ADD DUP5 PUSH2 0xE59 JUMP JUMPDEST SWAP3 SWAP2 POP POP JUMP JUMPDEST PUSH1 0x0 PUSH1 0x40 DUP3 ADD SWAP1 POP PUSH2 0xF7F PUSH1 0x0 DUP4 ADD DUP6 PUSH2 0xE59 JUMP JUMPDEST PUSH2 0xF8C PUSH1 0x20 DUP4 ADD DUP5 PUSH2 0xE59 JUMP JUMPDEST SWAP4 SWAP3 POP POP POP JUMP JUMPDEST PUSH1 0x0 DUP2 SWAP1 POP SWAP2 SWAP1 POP JUMP JUMPDEST PUSH1 0x0 PUSH1 0x4 SWAP1 POP SWAP2 SWAP1 POP JUMP JUMPDEST PUSH1 0x0 PUSH1 0x20 DUP3 ADD SWAP1 POP SWAP2 SWAP1 POP JUMP JUMPDEST PUSH1 0x0 DUP2 SWAP1 POP SWAP3 SWAP2 POP POP JUMP JUMPDEST PUSH1 0x0 DUP3 DUP3 MSTORE PUSH1 0x20 DUP3 ADD SWAP1 POP SWAP3 SWAP2 POP POP JUMP JUMPDEST PUSH1 0x0 PUSH2 0xFDC DUP3 PUSH2 0x1118 JUMP JUMPDEST SWAP2 POP PUSH2 0xFE7 DUP4 PUSH2 0x1118 JUMP JUMPDEST SWAP3 POP DUP3 PUSH32 0xFFFFFFFFFFFFFFFFFFFFFFFFFFFFFFFFFFFFFFFFFFFFFFFFFFFFFFFFFFFFFFFF SUB DUP3 GT ISZERO PUSH2 0x101C JUMPI PUSH2 0x101B PUSH2 0x11AE JUMP JUMPDEST JUMPDEST DUP3 DUP3 ADD SWAP1 POP SWAP3 SWAP2 POP POP JUMP JUMPDEST PUSH1 0x0 PUSH2 0x1032 DUP3 PUSH2 0x1118 JUMP JUMPDEST SWAP2 POP PUSH2 0x103D DUP4 PUSH2 0x1118 JUMP JUMPDEST SWAP3 POP DUP2 PUSH32 0xFFFFFFFFFFFFFFFFFFFFFFFFFFFFFFFFFFFFFFFFFFFFFFFFFFFFFFFFFFFFFFFF DIV DUP4 GT DUP3 ISZERO ISZERO AND ISZERO PUSH2 0x1076 JUMPI PUSH2 0x1075 PUSH2 0x11AE JUMP JUMPDEST JUMPDEST DUP3 DUP3 MUL SWAP1 POP SWAP3 SWAP2 POP POP JUMP JUMPDEST PUSH1 0x0 PUSH2 0x108C DUP3 PUSH2 0x1118 JUMP JUMPDEST SWAP2 POP PUSH2 0x1097 DUP4 PUSH2 0x1118 JUMP JUMPDEST SWAP3 POP DUP3 DUP3 LT ISZERO PUSH2 0x10AA JUMPI PUSH2 0x10A9 PUSH2 0x11AE JUMP JUMPDEST JUMPDEST DUP3 DUP3 SUB SWAP1 POP SWAP3 SWAP2 POP POP JUMP JUMPDEST PUSH1 0x0 PUSH2 0x10C0 DUP3 PUSH2 0x10F8 JUMP JUMPDEST SWAP1 POP SWAP2 SWAP1 POP JUMP JUMPDEST PUSH1 0x0 PUSH2 0x10D2 DUP3 PUSH2 0x10F8 JUMP JUMPDEST SWAP1 POP SWAP2 SWAP1 POP JUMP JUMPDEST PUSH1 0x0 DUP2 ISZERO ISZERO SWAP1 POP SWAP2 SWAP1 POP JUMP JUMPDEST PUSH1 0x0 DUP2 SWAP1 POP PUSH2 0x10F3 DUP3 PUSH2 0x12FE JUMP JUMPDEST SWAP2 SWAP1 POP JUMP JUMPDEST PUSH1 0x0 PUSH20 0xFFFFFFFFFFFFFFFFFFFFFFFFFFFFFFFFFFFFFFFF DUP3 AND SWAP1 POP SWAP2 SWAP1 POP JUMP JUMPDEST PUSH1 0x0 DUP2 SWAP1 POP SWAP2 SWAP1 POP JUMP JUMPDEST PUSH1 0x0 PUSH2 0x112D DUP3 PUSH2 0x10E5 JUMP JUMPDEST SWAP1 POP SWAP2 SWAP1 POP JUMP JUMPDEST PUSH1 0x0 PUSH2 0x113F DUP3 PUSH2 0x1118 JUMP JUMPDEST SWAP2 POP PUSH32 0xFFFFFFFFFFFFFFFFFFFFFFFFFFFFFFFFFFFFFFFFFFFFFFFFFFFFFFFFFFFFFFFF DUP3 EQ ISZERO PUSH2 0x1172 JUMPI PUSH2 0x1171 PUSH2 0x11AE JUMP JUMPDEST JUMPDEST PUSH1 0x1 DUP3 ADD SWAP1 POP SWAP2 SWAP1 POP JUMP JUMPDEST PUSH1 0x0 PUSH2 0x1188 DUP3 PUSH2 0x1118 JUMP JUMPDEST SWAP2 POP PUSH2 0x1193 DUP4 PUSH2 0x1118 JUMP JUMPDEST SWAP3 POP DUP3 PUSH2 0x11A3 JUMPI PUSH2 0x11A2 PUSH2 0x11DD JUMP JUMPDEST JUMPDEST DUP3 DUP3 MOD SWAP1 POP SWAP3 SWAP2 POP POP JUMP JUMPDEST PUSH32 0x4E487B7100000000000000000000000000000000000000000000000000000000 PUSH1 0x0 MSTORE PUSH1 0x11 PUSH1 0x4 MSTORE PUSH1 0x24 PUSH1 0x0 REVERT JUMPDEST PUSH32 0x4E487B7100000000000000000000000000000000000000000000000000000000 PUSH1 0x0 MSTORE PUSH1 0x12 PUSH1 0x4 MSTORE PUSH1 0x24 PUSH1 0x0 REVERT JUMPDEST PUSH32 0x4E487B7100000000000000000000000000000000000000000000000000000000 PUSH1 0x0 MSTORE PUSH1 0x21 PUSH1 0x4 MSTORE PUSH1 0x24 PUSH1 0x0 REVERT JUMPDEST PUSH32 0x4E487B7100000000000000000000000000000000000000000000000000000000 PUSH1 0x0 MSTORE PUSH1 0x32 PUSH1 0x4 MSTORE PUSH1 0x24 PUSH1 0x0 REVERT JUMPDEST PUSH1 0x0 DUP1 REVERT JUMPDEST PUSH1 0x0 DUP1 REVERT JUMPDEST PUSH1 0x0 DUP1 REVERT JUMPDEST PUSH1 0x0 DUP1 REVERT JUMPDEST PUSH1 0x0 DUP1 REVERT JUMPDEST PUSH32 0x48656C6C6F2045564D2100000000000000000000000000000000000000000000 PUSH1 0x0 DUP3 ADD MSTORE POP JUMP JUMPDEST PUSH32 0x48656C6C6F20576F726C64210000000000000000000000000000000000000000 PUSH1 0x0 DUP3 ADD MSTORE POP JUMP JUMPDEST PUSH32 0x496E707574206D7573742062652067726561746572207468616E203136000000 PUSH1 0x0 DUP3 ADD MSTORE POP JUMP JUMPDEST PUSH1 0x4 DUP2 LT PUSH2 0x130F JUMPI PUSH2 0x130E PUSH2 0x120C JUMP JUMPDEST JUMPDEST POP JUMP JUMPDEST PUSH2 0x131B DUP2 PUSH2 0x10B5 JUMP JUMPDEST DUP2 EQ PUSH2 0x1326 JUMPI PUSH1 0x0 DUP1 REVERT JUMPDEST POP JUMP JUMPDEST PUSH1 0x4 DUP2 LT PUSH2 0x1336 JUMPI PUSH1 0x0 DUP1 REVERT JUMPDEST POP JUMP JUMPDEST PUSH2 0x1342 DUP2 PUSH2 0x1118 JUMP JUMPDEST DUP2 EQ PUSH2 0x134D JUMPI PUSH1 0x0 DUP1 REVERT JUMPDEST POP JUMP INVALID LOG2 PUSH5 0x6970667358 0x22 SLT KECCAK256 SUB GASPRICE 0xBD LOG4 SLOAD 0x21 CALL 0xE0 PUSH14 0xB71C751D43AB1AF00917B4AE554 0xEC 0xAA 0xC7 0x2F PUSH14 0x6DDB032064736F6C634300080700 CALLER "
				},
				"gasEstimates": {
					"creation": {
						"codeDepositCost": "999600",
						"executionCost": "infinite",
						"totalCost": "infinite"
					},
					"external": {
						"": "198",
						"MY_ADDRESS()": "2673",
						"NOT_MY_ADDRESS()": "infinite",
						"aBool()": "2539",
						"count()": "2476",
						"createOrder(string,uint256)": "infinite",
						"dec()": "infinite",
						"double()": "infinite",
						"get()": "2483",
						"getABool()": "2590",
						"getBal(address)": "2931",
						"getBalance()": "408",
						"getNumbers()": "infinite",
						"getOrder()": "2685",
						"getStamp()": "446",
						"inc()": "infinite",
						"incBal(address)": "infinite",
						"ledger(address)": "2880",
						"loopUp()": "infinite",
						"makeFalse()": "24500",
						"makeTrue()": "24457",
						"maybeRandom()": "infinite",
						"order()": "2655",
						"setOrder(uint8)": "24767",
						"setToPending()": "24593",
						"ternary(uint256)": "infinite",
						"test()": "infinite",
						"testRequire(uint256)": "infinite",
						"transactMe(uint256)": "infinite",
						"whois()": "474",
						"withdraw(uint256)": "infinite"
					}
				},
				"methodIdentifiers": {
					"MY_ADDRESS()": "3a756cec",
					"NOT_MY_ADDRESS()": "4984e402",
					"aBool()": "350ca843",
					"count()": "06661abd",
					"createOrder(string,uint256)": "97de706f",
					"dec()": "b3bcfa82",
					"double()": "8fdb7189",
					"get()": "6d4ce63c",
					"getABool()": "f4e78580",
					"getBal(address)": "2fa78085",
					"getBalance()": "12065fe0",
					"getNumbers()": "89f915f6",
					"getOrder()": "d36dedd2",
					"getStamp()": "fc6167cc",
					"inc()": "371303c0",
					"incBal(address)": "3d1157fb",
					"ledger(address)": "fbfa941f",
					"loopUp()": "15169e9a",
					"makeFalse()": "4c35a7c9",
					"makeTrue()": "340488c6",
					"maybeRandom()": "2c9fcc1d",
					"order()": "bf15071d",
					"setOrder(uint8)": "9ddbebd8",
					"setToPending()": "3052e962",
					"ternary(uint256)": "55278c5b",
					"test()": "f8a8fd6d",
					"testRequire(uint256)": "b8bd717f",
					"transactMe(uint256)": "fc38511a",
					"whois()": "e7004c89",
					"withdraw(uint256)": "2e1a7d4d"
				}
			},
			"storageLayout": {
				"storage": [
					{
						"astId": 3,
						"contract": "learning.sol:LearnerContract",
						"label": "count",
						"offset": 0,
						"slot": "0",
						"type": "t_uint256"
					},
					{
						"astId": 5,
						"contract": "learning.sol:LearnerContract",
						"label": "aBool",
						"offset": 0,
						"slot": "1",
						"type": "t_bool"
					},
					{
						"astId": 7,
						"contract": "learning.sol:LearnerContract",
						"label": "MY_ADDRESS",
						"offset": 1,
						"slot": "1",
						"type": "t_address_payable"
					},
					{
						"astId": 12,
						"contract": "learning.sol:LearnerContract",
						"label": "locked",
						"offset": 21,
						"slot": "1",
						"type": "t_bool"
					},
					{
						"astId": 32,
						"contract": "learning.sol:LearnerContract",
						"label": "order",
						"offset": 22,
						"slot": "1",
						"type": "t_enum(Order)29"
					},
					{
						"astId": 94,
						"contract": "learning.sol:LearnerContract",
						"label": "ledger",
						"offset": 0,
						"slot": "2",
						"type": "t_mapping(t_address,t_uint256)"
					}
				],
				"types": {
					"t_address": {
						"encoding": "inplace",
						"label": "address",
						"numberOfBytes": "20"
					},
					"t_address_payable": {
						"encoding": "inplace",
						"label": "address payable",
						"numberOfBytes": "20"
					},
					"t_bool": {
						"encoding": "inplace",
						"label": "bool",
						"numberOfBytes": "1"
					},
					"t_enum(Order)29": {
						"encoding": "inplace",
						"label": "enum LearnerContract.Order",
						"numberOfBytes": "1"
					},
					"t_mapping(t_address,t_uint256)": {
						"encoding": "mapping",
						"key": "t_address",
						"label": "mapping(address => uint256)",
						"numberOfBytes": "32",
						"value": "t_uint256"
					},
					"t_uint256": {
						"encoding": "inplace",
						"label": "uint256",
						"numberOfBytes": "32"
					}
				}
			},
			"userdoc": {
				"kind": "user",
				"methods": {},
				"version": 1
			}
		}
	}
}